> eth.getBlock(1)
{
  difficulty: 131072,
  extraData: "0xd883010a12846765746888676f312e31382e31856c696e7578",
  gasLimit: 30000000,
  gasUsed: 511971,
  hash: "0x13c4e8a4c8432f0c4a67e32572fdb6ae55d4544803c566523f0b14a1b4a55ce2",
  logsBloom: "0x00000000000000000000000000000000000000000000000000000000000000000000000000000000000000000000000000000000000000000000000000000000000000000000000000000000000000000000000000000000000000000000000000000000000000000000000000000000000000000000000000000000000000000000000000000000000000000000000000000000000000000000000000000000000000000000000000000000000000000000000000000000000000000000000000000000000000000000000000000000000000000000000000000000000000000000000000000000000000000000000000000000000000000000000000000000",
  miner: "0x942f397b7f4391b43115395f469c63072aed6e41",
  mixHash: "0x426b6300703a36b84b4eebfce8227ab8fe99db684809d2279143183128a3958b",
  nonce: "0x16da52a495a3ba1a",
  number: 1,
  parentHash: "0x935fc1ee9e74d18005508b2a2aec8fd77d5842e384db05089ea6add7194396dc",
  receiptsRoot: "0x706cc684247433de288c9b13b3b9c661bf929d92018288245fafd763f2b1869c",
  sha3Uncles: "0x1dcc4de8dec75d7aab85b567b6ccd41ad312451b948a7413f0a142fd40d49347",
  size: 2391,
  stateRoot: "0x124ae6dc1384773c061072735b07b71a83166e1f56a60571146f47195b628d11",
  timestamp: 1651262976,
  totalDifficulty: 131073,
  transactions: ["0x685acb0d0a71dd14a09c1b2dedff6d04e987bcaf24f8a7e2d6113a7ea7ab018f"],
  transactionsRoot: "0x06a4aeb11fc81dceed594346493507b250b7da6dd80d99083c9d10da30aa8084",
  uncles: []
}

[
  '124ae6dc1384773c061072735b07b71a83166e1f56a60571146f47195b628d11 : f85180808080a0d5fadd65493e263392ee3bc20eab3b5ac90ec85ae25e9549cc9bae097e512c9280a0200d82fc183bf63c9110d154b405a5f7984d5bd55d3dafc3f8d971ae31e437e780808080808080808080',
  '200d82fc183bf63c9110d154b405a5f7984d5bd55d3dafc3f8d971ae31e437e7 : f872a035eca67d2c0211b30a217d6eb1c4804baeb869b5f75902493a5607c98ed42c61b84ff84d018936518b1b2d2d680000a056e81f171bcc55a6ff8345e692c0f86e5b48e01b996cadc001622fb5e363b421a0c5d2460186f7233c927e7db2dcc703c0e500b653ca82273b7bfad8045d85a470',
  '446174616261736556657273696f6e : 08',
  '4813c4e8a4c8432f0c4a67e32572fdb6ae55d4544803c566523f0b14a1b4a55ce2 : 0000000000000001',
  '48935fc1ee9e74d18005508b2a2aec8fd77d5842e384db05089ea6add7194396dc : 0000000000000000',
  '4c617374426c6f636b : 13c4e8a4c8432f0c4a67e32572fdb6ae55d4544803c566523f0b14a1b4a55ce2',
  '4c61737446617374 : 13c4e8a4c8432f0c4a67e32572fdb6ae55d4544803c566523f0b14a1b4a55ce2',
  '4c617374486561646572 : 13c4e8a4c8432f0c4a67e32572fdb6ae55d4544803c566523f0b14a1b4a55ce2',
  '536e617073686f7447656e657261746f72 : c6800180808080',
  '536e617073686f744a6f75726e616c : 80a0adcbc6bbe9eac0f0c2b16f36f7359b941d901bb121bc245d292c20cf99fa5857a0124ae6dc1384773c061072735b07b71a83166e1f56a60571146f47195b628d11c0f89cf0a065eca67d2c0211b30a217d6eb1c4804baeb869b5f75902493a5607c98ed42c618ecd018936518b1b2d2d6800008080f869a044e229de97d6dcb0cff85acd0eabdd23b939f8cc1cc1ca0595aca9135b1243b9b846f8440180a064463b608bf4aec320f424e007ed9f9a6fbe04dbaacc8c18f60e27fb3a16a6d1a007d66a4e1d89094cab8479602a51082c45b332b0ce73399843d3030a905cb055f84af848a044e229de97d6dcb0cff85acd0eabdd23b939f8cc1cc1ca0595aca9135b1243b9e1a0e3540e6242270704338b7fe85d1cd55f25c3cda9d49bcc86da3da724a0356bb5c483822710',
  '536e617073686f74526f6f74 : adcbc6bbe9eac0f0c2b16f36f7359b941d901bb121bc245d292c20cf99fa5857',
  '5472616e73616374696f6e496e6465785461696c : 0000000000000000',
  '6165eca67d2c0211b30a217d6eb1c4804baeb869b5f75902493a5607c98ed42c61 : cd80893635c9adc5dea000008080',
  '620000000000000000935fc1ee9e74d18005508b2a2aec8fd77d5842e384db05089ea6add7194396dc : c2c0c0',
  '62000000000000000113c4e8a4c8432f0c4a67e32572fdb6ae55d4544803c566523f0b14a1b4a55ce2 : f9073df90739f90736808506fc23ac008307cfe38080b906e1608060405234801561001057600080fd5b506127106000803373ffffffffffffffffffffffffffffffffffffffff1673ffffffffffffffffffffffffffffffffffffffff1681526020019081526020016000208190555061067c806100656000396000f3fe608060405234801561001057600080fd5b50600436106100365760003560e01c806370a082311461003b578063a9059cbb1461006b575b600080fd5b61005560048036038101906100509190610355565b61009b565b604051610062919061039b565b60405180910390f35b610085600480360381019061008091906103e2565b6100e3565b604051610092919061043d565b60405180910390f35b60008060008373ffffffffffffffffffffffffffffffffffffffff1673ffffffffffffffffffffffffffffffffffffffff168152602001908152602001600020549050919050565b60008073ffffffffffffffffffffffffffffffffffffffff168373ffffffffffffffffffffffffffffffffffffffff1603610153576040517f08c379a000000000000000000000000000000000000000000000000000000000815260040161014a906104db565b60405180910390fd5b600033905060008060008373ffffffffffffffffffffffffffffffffffffffff1673ffffffffffffffffffffffffffffffffffffffff168152602001908152602001600020549050838110156101de576040517f08c379a00000000000000000000000000000000000000000000000000000000081526004016101d59061056d565b60405180910390fd5b83816101ea91906105bc565b6000808473ffffffffffffffffffffffffffffffffffffffff1673ffffffffffffffffffffffffffffffffffffffff16815260200190815260200160002081905550836000808773ffffffffffffffffffffffffffffffffffffffff1673ffffffffffffffffffffffffffffffffffffffff168152602001908152602001600020600082825461027a91906105f0565b925050819055508473ffffffffffffffffffffffffffffffffffffffff168273ffffffffffffffffffffffffffffffffffffffff167fddf252ad1be2c89b69c2b068fc378daa952ba7f163c4a11628f55a4df523b3ef866040516102de919061039b565b60405180910390a360019250505092915050565b600080fd5b600073ffffffffffffffffffffffffffffffffffffffff82169050919050565b6000610322826102f7565b9050919050565b61033281610317565b811461033d57600080fd5b50565b60008135905061034f81610329565b92915050565b60006020828403121561036b5761036a6102f2565b5b600061037984828501610340565b91505092915050565b6000819050919050565b61039581610382565b82525050565b60006020820190506103b0600083018461038c565b92915050565b6103bf81610382565b81146103ca57600080fd5b50565b6000813590506103dc816103b6565b92915050565b600080604083850312156103f9576103f86102f2565b5b600061040785828601610340565b9250506020610418858286016103cd565b9150509250929050565b60008115159050919050565b61043781610422565b82525050565b6000602082019050610452600083018461042e565b92915050565b600082825260208201905092915050565b7f45524332303a207472616e7366657220746f20746865207a65726f206164647260008201527f6573730000000000000000000000000000000000000000000000000000000000602082015250565b60006104c5602383610458565b91506104d082610469565b604082019050919050565b600060208201905081810360008301526104f4816104b8565b9050919050565b7f45524332303a207472616e7366657220616d6f756e742065786365656473206260008201527f616c616e63650000000000000000000000000000000000000000000000000000602082015250565b6000610557602683610458565b9150610562826104fb565b604082019050919050565b600060208201905081810360008301526105868161054a565b9050919050565b7f4e487b7100000000000000000000000000000000000000000000000000000000600052601160045260246000fd5b60006105c782610382565b91506105d283610382565b9250828210156105e5576105e461058d565b5b828203905092915050565b60006105fb82610382565b915061060683610382565b9250827fffffffffffffffffffffffffffffffffffffffffffffffffffffffffffffffff0382111561063b5761063a61058d565b5b82820190509291505056fea2646970667358221220a1d5cf32f5a4750bfedb554f14e17971a4b56b2272dd29d702bc4a408c0c930064736f6c634300080d00338224cda077779bf6388652ad753cc9e59cb81253fcb5229a1370baad709cd4586bb8213ca040c8493a745d73d472ad6179af5589268189cf3221c21d0cabd84f538600c532c0',
  '6307d66a4e1d89094cab8479602a51082c45b332b0ce73399843d3030a905cb055 : 608060405234801561001057600080fd5b50600436106100365760003560e01c806370a082311461003b578063a9059cbb1461006b575b600080fd5b61005560048036038101906100509190610355565b61009b565b604051610062919061039b565b60405180910390f35b610085600480360381019061008091906103e2565b6100e3565b604051610092919061043d565b60405180910390f35b60008060008373ffffffffffffffffffffffffffffffffffffffff1673ffffffffffffffffffffffffffffffffffffffff168152602001908152602001600020549050919050565b60008073ffffffffffffffffffffffffffffffffffffffff168373ffffffffffffffffffffffffffffffffffffffff1603610153576040517f08c379a000000000000000000000000000000000000000000000000000000000815260040161014a906104db565b60405180910390fd5b600033905060008060008373ffffffffffffffffffffffffffffffffffffffff1673ffffffffffffffffffffffffffffffffffffffff168152602001908152602001600020549050838110156101de576040517f08c379a00000000000000000000000000000000000000000000000000000000081526004016101d59061056d565b60405180910390fd5b83816101ea91906105bc565b6000808473ffffffffffffffffffffffffffffffffffffffff1673ffffffffffffffffffffffffffffffffffffffff16815260200190815260200160002081905550836000808773ffffffffffffffffffffffffffffffffffffffff1673ffffffffffffffffffffffffffffffffffffffff168152602001908152602001600020600082825461027a91906105f0565b925050819055508473ffffffffffffffffffffffffffffffffffffffff168273ffffffffffffffffffffffffffffffffffffffff167fddf252ad1be2c89b69c2b068fc378daa952ba7f163c4a11628f55a4df523b3ef866040516102de919061039b565b60405180910390a360019250505092915050565b600080fd5b600073ffffffffffffffffffffffffffffffffffffffff82169050919050565b6000610322826102f7565b9050919050565b61033281610317565b811461033d57600080fd5b50565b60008135905061034f81610329565b92915050565b60006020828403121561036b5761036a6102f2565b5b600061037984828501610340565b91505092915050565b6000819050919050565b61039581610382565b82525050565b60006020820190506103b0600083018461038c565b92915050565b6103bf81610382565b81146103ca57600080fd5b50565b6000813590506103dc816103b6565b92915050565b600080604083850312156103f9576103f86102f2565b5b600061040785828601610340565b9250506020610418858286016103cd565b9150509250929050565b60008115159050919050565b61043781610422565b82525050565b6000602082019050610452600083018461042e565b92915050565b600082825260208201905092915050565b7f45524332303a207472616e7366657220746f20746865207a65726f206164647260008201527f6573730000000000000000000000000000000000000000000000000000000000602082015250565b60006104c5602383610458565b91506104d082610469565b604082019050919050565b600060208201905081810360008301526104f4816104b8565b9050919050565b7f45524332303a207472616e7366657220616d6f756e742065786365656473206260008201527f616c616e63650000000000000000000000000000000000000000000000000000602082015250565b6000610557602683610458565b9150610562826104fb565b604082019050919050565b600060208201905081810360008301526105868161054a565b9050919050565b7f4e487b7100000000000000000000000000000000000000000000000000000000600052601160045260246000fd5b60006105c782610382565b91506105d283610382565b9250828210156105e5576105e461058d565b5b828203905092915050565b60006105fb82610382565b915061060683610382565b9250827fffffffffffffffffffffffffffffffffffffffffffffffffffffffffffffffff0382111561063b5761063a61058d565b5b82820190509291505056fea2646970667358221220a1d5cf32f5a4750bfedb554f14e17971a4b56b2272dd29d702bc4a408c0c930064736f6c634300080d0033',
  '64463b608bf4aec320f424e007ed9f9a6fbe04dbaacc8c18f60e27fb3a16a6d1 : e6a120e3540e6242270704338b7fe85d1cd55f25c3cda9d49bcc86da3da724a0356bb583822710',
  '657468657265756d2d636f6e6669672d935fc1ee9e74d18005508b2a2aec8fd77d5842e384db05089ea6add7194396dc : 7b22636861696e4964223a343639332c22686f6d657374656164426c6f636b223a302c22656970313530426c6f636b223a302c2265697031353048617368223a22307830303030303030303030303030303030303030303030303030303030303030303030303030303030303030303030303030303030303030303030303030303030222c22656970313535426c6f636b223a302c22656970313538426c6f636b223a302c2262797a616e7469756d426c6f636b223a302c22636f6e7374616e74696e6f706c65426c6f636b223a302c2270657465727362757267426c6f636b223a302c22657468617368223a7b7d7d',
  '657468657265756d2d67656e657369732d935fc1ee9e74d18005508b2a2aec8fd77d5842e384db05089ea6add7194396dc : 7b22307839343266333937623766343339316234333131353339356634363963363330373261656436653431223a7b2262616c616e6365223a223078333633356339616463356465613030303030227d7d',
  '6800000000000000006e : 935fc1ee9e74d18005508b2a2aec8fd77d5842e384db05089ea6add7194396dc',
  '680000000000000000935fc1ee9e74d18005508b2a2aec8fd77d5842e384db05089ea6add7194396dc : f901f1a00000000000000000000000000000000000000000000000000000000000000000a01dcc4de8dec75d7aab85b567b6ccd41ad312451b948a7413f0a142fd40d49347940000000000000000000000000000000000000000a0adcbc6bbe9eac0f0c2b16f36f7359b941d901bb121bc245d292c20cf99fa5857a056e81f171bcc55a6ff8345e692c0f86e5b48e01b996cadc001622fb5e363b421a056e81f171bcc55a6ff8345e692c0f86e5b48e01b996cadc001622fb5e363b421b901000000000000000000000000000000000000000000000000000000000000000000000000000000000000000000000000000000000000000000000000000000000000000000000000000000000000000000000000000000000000000000000000000000000000000000000000000000000000000000000000000000000000000000000000000000000000000000000000000000000000000000000000000000000000000000000000000000000000000000000000000000000000000000000000000000000000000000000000000000000000000000000000000000000000000000000000000000000000000000000000000000000000000000000000000000000001808401c9c380808080a00000000000000000000000000000000000000000000000000000000000000000880000000000000000',
  '680000000000000000935fc1ee9e74d18005508b2a2aec8fd77d5842e384db05089ea6add7194396dc74 : 01',
  '68000000000000000113c4e8a4c8432f0c4a67e32572fdb6ae55d4544803c566523f0b14a1b4a55ce2 : f90214a0935fc1ee9e74d18005508b2a2aec8fd77d5842e384db05089ea6add7194396dca01dcc4de8dec75d7aab85b567b6ccd41ad312451b948a7413f0a142fd40d4934794942f397b7f4391b43115395f469c63072aed6e41a0124ae6dc1384773c061072735b07b71a83166e1f56a60571146f47195b628d11a006a4aeb11fc81dceed594346493507b250b7da6dd80d99083c9d10da30aa8084a0706cc684247433de288c9b13b3b9c661bf929d92018288245fafd763f2b1869cb901000000000000000000000000000000000000000000000000000000000000000000000000000000000000000000000000000000000000000000000000000000000000000000000000000000000000000000000000000000000000000000000000000000000000000000000000000000000000000000000000000000000000000000000000000000000000000000000000000000000000000000000000000000000000000000000000000000000000000000000000000000000000000000000000000000000000000000000000000000000000000000000000000000000000000000000000000000000000000000000000000000000000000000000000000000000083020000018401c9c3808307cfe384626c460099d883010a12846765746888676f312e31382e31856c696e7578a0426b6300703a36b84b4eebfce8227ab8fe99db684809d2279143183128a3958b8816da52a495a3ba1a',
  '68000000000000000113c4e8a4c8432f0c4a67e32572fdb6ae55d4544803c566523f0b14a1b4a55ce274 : 83020001',
  '6800000000000000016e : 13c4e8a4c8432f0c4a67e32572fdb6ae55d4544803c566523f0b14a1b4a55ce2',
  '6c685acb0d0a71dd14a09c1b2dedff6d04e987bcaf24f8a7e2d6113a7ea7ab018f : 01',
  '720000000000000000935fc1ee9e74d18005508b2a2aec8fd77d5842e384db05089ea6add7194396dc : c0',
  '72000000000000000113c4e8a4c8432f0c4a67e32572fdb6ae55d4544803c566523f0b14a1b4a55ce2 : c7c6018307cfe3c0',
  '7365637572652d6b65792d65eca67d2c0211b30a217d6eb1c4804baeb869b5f75902493a5607c98ed42c61 : 942f397b7f4391b43115395f469c63072aed6e41',
  '756e636c65616e2d73687574646f776e : c280c0',
  'adcbc6bbe9eac0f0c2b16f36f7359b941d901bb121bc245d292c20cf99fa5857 : f873a12065eca67d2c0211b30a217d6eb1c4804baeb869b5f75902493a5607c98ed42c61b84ff84d80893635c9adc5dea00000a056e81f171bcc55a6ff8345e692c0f86e5b48e01b996cadc001622fb5e363b421a0c5d2460186f7233c927e7db2dcc703c0e500b653ca82273b7bfad8045d85a470',
  'd5fadd65493e263392ee3bc20eab3b5ac90ec85ae25e9549cc9bae097e512c92 : f869a034e229de97d6dcb0cff85acd0eabdd23b939f8cc1cc1ca0595aca9135b1243b9b846f8440180a064463b608bf4aec320f424e007ed9f9a6fbe04dbaacc8c18f60e27fb3a16a6d1a007d66a4e1d89094cab8479602a51082c45b332b0ce73399843d3030a905cb055'
]