$ node _1_txLegacy.js
=============================================
==== Type 0 Legacy with chainId(EIP-155) ====
=============================================

>> Prepare Sign
txItems: 1,0x06fc23ac00,0x0f4240,0x60e69B73db38D52C70690a8EfCeE30383190CDFA,0x,0xa9059cbb000000000000000000000000911d6b77014fa58afd85be49e5148cbeaa3fee3900000000000000000000000000000000000000000000000000000000000003e8,0x1255,0x,0x
txRlp: 0xf86c018506fc23ac00830f42409460e69b73db38d52c70690a8efcee30383190cdfa80b844a9059cbb000000000000000000000000911d6b77014fa58afd85be49e5148cbeaa3fee3900000000000000000000000000000000000000000000000000000000000003e88212558080
txHash: 0xfa71861799bc7051548df846efe3502780197ea1e85c12cf1ae434f8a6b4c29e

>> Sign(ECDSA)
recId: 1
v: 0x24ce
r: 0x9ff91eee11bcf2951d984e9449236f151725f6367b5b12480d6ebaeee69c5b23
s: 0x7fd5715dc431cccabbd508cc849c875ced617749880ba8251325a38763fd814a
>> Signed Transaction
[
  1,
  '0x06fc23ac00',
  '0x0f4240',
  '0x60e69B73db38D52C70690a8EfCeE30383190CDFA',
  '0x',
  '0xa9059cbb000000000000000000000000911d6b77014fa58afd85be49e5148cbeaa3fee3900000000000000000000000000000000000000000000000000000000000003e8',
  '0x24ce',
  '0x9ff91eee11bcf2951d984e9449236f151725f6367b5b12480d6ebaeee69c5b23',
  '0x7fd5715dc431cccabbd508cc849c875ced617749880ba8251325a38763fd814a'
]
signedTxRlp:
0xf8ac018506fc23ac00830f42409460e69b73db38d52c70690a8efcee30383190cdfa80b844a9059cbb000000000000000000000000911d6b77014fa58afd85be49e5148cbeaa3fee3900000000000000000000000000000000000000000000000000000000000003e88224cea09ff91eee11bcf2951d984e9449236f151725f6367b5b12480d6ebaeee69c5b23a07fd5715dc431cccabbd508cc849c875ced617749880ba8251325a38763fd814a
signedTxHash : 0xaf1ad2f6b02595cfcf8fdbb78e69be2f15e762c915dcf708fdfe3d1f02c80848


// geth node log
INFO [04-30|05:16:12.414] Setting new local account                address=0x942F397B7f4391B43115395F469c63072aEd6E41
INFO [04-30|05:16:12.415] Submitted transaction                    hash=0xaf1ad2f6b02595cfcf8fdbb78e69be2f15e762c915dcf708fdfe3d1f02c80848 from=0x942F397B7f4391B43115395F469c63072aEd6E41 nonce=1 recipient=0x60e69B73db38D52C70690a8EfCeE30383190CDFA value=0

// geth - getTransaction
> eth.getTransaction("0xaf1ad2f6b02595cfcf8fdbb78e69be2f15e762c915dcf708fdfe3d1f02c80848")
{
  blockHash: "0x0dcff4e9a3f2f738966b65f7b1bbf2d8c5daf04d329af0632d9eee25e8131716",
  blockNumber: 2,
  from: "0x942f397b7f4391b43115395f469c63072aed6e41",
  gas: 1000000,
  gasPrice: 30000000000,
  hash: "0xaf1ad2f6b02595cfcf8fdbb78e69be2f15e762c915dcf708fdfe3d1f02c80848",
  input: "0xa9059cbb000000000000000000000000911d6b77014fa58afd85be49e5148cbeaa3fee3900000000000000000000000000000000000000000000000000000000000003e8",
  nonce: 1,
  r: "0x9ff91eee11bcf2951d984e9449236f151725f6367b5b12480d6ebaeee69c5b23",
  s: "0x7fd5715dc431cccabbd508cc849c875ced617749880ba8251325a38763fd814a",
  to: "0x60e69b73db38d52c70690a8efcee30383190cdfa",
  transactionIndex: 0,
  type: "0x0",
  v: "0x24ce",
  value: 0
}

// geth - getTransactionReceipt
> eth.getTransactionReceipt("0xaf1ad2f6b02595cfcf8fdbb78e69be2f15e762c915dcf708fdfe3d1f02c80848")
{
  blockHash: "0x0dcff4e9a3f2f738966b65f7b1bbf2d8c5daf04d329af0632d9eee25e8131716",
  blockNumber: 2,
  contractAddress: null,
  cumulativeGasUsed: 51898,
  effectiveGasPrice: 30000000000,
  from: "0x942f397b7f4391b43115395f469c63072aed6e41",
  gasUsed: 51898,
  logs: [{
      address: "0x60e69b73db38d52c70690a8efcee30383190cdfa",
      blockHash: "0x0dcff4e9a3f2f738966b65f7b1bbf2d8c5daf04d329af0632d9eee25e8131716",
      blockNumber: 2,
      data: "0x00000000000000000000000000000000000000000000000000000000000003e8",
      logIndex: 0,
      removed: false,
      topics: ["0xddf252ad1be2c89b69c2b068fc378daa952ba7f163c4a11628f55a4df523b3ef", "0x000000000000000000000000942f397b7f4391b43115395f469c63072aed6e41", "0x000000000000000000000000911d6b77014fa58afd85be49e5148cbeaa3fee39"],
      transactionHash: "0xaf1ad2f6b02595cfcf8fdbb78e69be2f15e762c915dcf708fdfe3d1f02c80848",
      transactionIndex: 0
  }],
  logsBloom: "0x00000000004000000000000000000000000000000000000000000000000000000000000001000000000000000000000000000000000000000000000000000000000000000000000000000008000000040000000000000000000000000000000000010004000000000000040000000000000000000000000000000010000000000000000000000000000800000000000000000000000000000000000000000000000000000000000000000000000000000000000000000000000000000000000000000002400000000000200000000000000000000000000000000000000000000000000000000000000000000000000000000000000000000000000000000000",
  status: "0x1",
  to: "0x60e69b73db38d52c70690a8efcee30383190cdfa",
  transactionHash: "0xaf1ad2f6b02595cfcf8fdbb78e69be2f15e762c915dcf708fdfe3d1f02c80848",
  transactionIndex: 0,
  type: "0x0"
}

// web3 - receipt
{
  blockHash: '0x0dcff4e9a3f2f738966b65f7b1bbf2d8c5daf04d329af0632d9eee25e8131716',
  blockNumber: 2,
  contractAddress: null,
  cumulativeGasUsed: 51898,
  effectiveGasPrice: 30000000000,
  from: '0x942f397b7f4391b43115395f469c63072aed6e41',
  gasUsed: 51898,
  logs: [
    {
      address: '0x60e69B73db38D52C70690a8EfCeE30383190CDFA',
      topics: [Array],
      data: '0x00000000000000000000000000000000000000000000000000000000000003e8',
      blockNumber: 2,
      transactionHash: '0xaf1ad2f6b02595cfcf8fdbb78e69be2f15e762c915dcf708fdfe3d1f02c80848',
      transactionIndex: 0,
      blockHash: '0x0dcff4e9a3f2f738966b65f7b1bbf2d8c5daf04d329af0632d9eee25e8131716',
      logIndex: 0,
      removed: false,
      id: 'log_e09e30b6'
    }
  ],
  logsBloom: '0x00000000004000000000000000000000000000000000000000000000000000000000000001000000000000000000000000000000000000000000000000000000000000000000000000000008000000040000000000000000000000000000000000010004000000000000040000000000000000000000000000000010000000000000000000000000000800000000000000000000000000000000000000000000000000000000000000000000000000000000000000000000000000000000000000000002400000000000200000000000000000000000000000000000000000000000000000000000000000000000000000000000000000000000000000000000',
  status: true,
  to: '0x60e69b73db38d52c70690a8efcee30383190cdfa',
  transactionHash: '0xaf1ad2f6b02595cfcf8fdbb78e69be2f15e762c915dcf708fdfe3d1f02c80848',
  transactionIndex: 0,
  type: '0x0'
}

