[] -> RLP: 0xc0 -> keccak-256: 1dcc4de8dec75d7aab85b567b6ccd41ad312451b948a7413f0a142fd40d49347
nil(go) -> keccak-256 -> 56e81f171bcc55a6ff8345e692c0f86e5b48e01b996cadc001622fb5e363b421
"" -> keccak-256: c5d2460186f7233c927e7db2dcc703c0e500b653ca82273b7bfad8045d85a470

DB스키마의 관심 prefix 체크
- 0x48{BlockHash} :블록번호
- 0x62{BlockHash}{BlockNumber} : BlockBody -> [[트랜잭셕 목록],[UncleHeader목록]]
- 0x63{BytecodeHash} : {Bytecode}
- 0x68{BlockNumber}6e : BlockHash
- 0x68{BlockNumber}{BlockHash} : BlockHeader
- 0x68{BlockNumber}{BlockHash}74: Difficulty
- 0x6c{TransactionHash} : {TxLookupPrefix} <- BlockNumber
- 0x72{BlockNumber}{BlockHash} : Receipts

transactionsRoot: "0x8fe0f4a6d58fa0860448ba06b486c33dd2ac885b2366926f1cc3e3ed7f36f14f"

Header
f90214a00dcff4e9a3f2f738966b65f7b1bbf2d8c5daf04d329af0632d9eee25e8131716a01dcc4de8dec75d7aab85b567b6ccd41ad312451b948a7413f0a142fd40d4934794942f397b7f4391b43115395f469c63072aed6e41a012593ae703063454aeef8d9c77701c829eeaa6ee7e90dd7be88e7775d2d08f91a08fe0f4a6d58fa0860448ba06b486c33dd2ac885b2366926f1cc3e3ed7f36f14fa0178ed646c2ec0a894de2c3c71409417a1badb6454bbbefb254dc3d538805280ab901000000000000400000000000000000000000000000000000000000000000000000000000000100000000000000000000000000000000000000000000000000000000000000000000000000000800000004000000000000000000000000000000000001000400000000000004000000000000000000000000000000001000000000000000000000000000080000000000000000000000000000000000000000000000000000000000000000000000000000000000000000000000000000000000000000000240000000000020000000000000000000000000000000000000000000000000000000000000000000000000000000000000000000000000000000000083020000038401c9c3808301204484626dbbd499d883010a12846765746888676f312e31382e31856c696e7578a0efaec248c34c7f6b2aa94f7e1c885dac99493edd3fc62271c4c1b5835acd2a6788220db79a99733417
[
    "0x0dcff4e9a3f2f738966b65f7b1bbf2d8c5daf04d329af0632d9eee25e8131716",
    "0x1dcc4de8dec75d7aab85b567b6ccd41ad312451b948a7413f0a142fd40d49347",
    "0x942f397b7f4391b43115395f469c63072aed6e41",
    "0x12593ae703063454aeef8d9c77701c829eeaa6ee7e90dd7be88e7775d2d08f91",
    "0x8fe0f4a6d58fa0860448ba06b486c33dd2ac885b2366926f1cc3e3ed7f36f14f",
    "0x178ed646c2ec0a894de2c3c71409417a1badb6454bbbefb254dc3d538805280a",
    "0x00000000004000000000000000000000000000000000000000000000000000000000000001000000000000000000000000000000000000000000000000000000000000000000000000000008000000040000000000000000000000000000000000010004000000000000040000000000000000000000000000000010000000000000000000000000000800000000000000000000000000000000000000000000000000000000000000000000000000000000000000000000000000000000000000000002400000000000200000000000000000000000000000000000000000000000000000000000000000000000000000000000000000000000000000000000",
    "0x020000",
    "0x03",
    "0x01c9c380",
    "0x012044",
    "0x626dbbd4",
    "0xd883010a12846765746888676f312e31382e31856c696e7578",
    "0xefaec248c34c7f6b2aa94f7e1c885dac99493edd3fc62271c4c1b5835acd2a67",
    "0x220db79a99733417"
]
[ParentHash, UncleHash, Coinbase, StateRoot, TransactionRoot, ReceiptsRoot, LogBloom,
    Difficulty, BlockNumber, GasLimit, GasUsed, Timestamp, ExtraData, MixHash, Nonce]

Body
f90160f9015cf8ac028506fc23ac00830f42409460e69b73db38d52c70690a8efcee30383190cdfa80b844a9059cbb000000000000000000000000911d6b77014fa58afd85be49e5148cbeaa3fee3900000000000000000000000000000000000000000000000000000000000003e88224cea061cc1567c14389143b141e5c62bb329ff930d2f3896260763c68295fee5eb15fa05eaffc2b63f8e3c9b9783f28de4b6c5d151798479b9636ca25506ebe416cdd42f8ac038506fc23ac00830f42409460e69b73db38d52c70690a8efcee30383190cdfa80b844a9059cbb000000000000000000000000911d6b77014fa58afd85be49e5148cbeaa3fee3900000000000000000000000000000000000000000000000000000000000003e88224cea04f04ab51aeef264726e27a4e049080abc9dc8b4ed931ec7ee5a64ebdffa763d2a0191086693aae0271415913df25ae8abdd2445432c900028ee67b21f49cbcd719c0
[
    [
        [
            "0x02",
            "0x06fc23ac00",
            "0x0f4240",
            "0x60e69b73db38d52c70690a8efcee30383190cdfa",
            "0x",
            "0xa9059cbb000000000000000000000000911d6b77014fa58afd85be49e5148cbeaa3fee3900000000000000000000000000000000000000000000000000000000000003e8",
            "0x24ce",
            "0x61cc1567c14389143b141e5c62bb329ff930d2f3896260763c68295fee5eb15f",
            "0x5eaffc2b63f8e3c9b9783f28de4b6c5d151798479b9636ca25506ebe416cdd42"
        ],
        [
            "0x03",
            "0x06fc23ac00",
            "0x0f4240",
            "0x60e69b73db38d52c70690a8efcee30383190cdfa",
            "0x",
            "0xa9059cbb000000000000000000000000911d6b77014fa58afd85be49e5148cbeaa3fee3900000000000000000000000000000000000000000000000000000000000003e8",
            "0x24ce",
            "0x4f04ab51aeef264726e27a4e049080abc9dc8b4ed931ec7ee5a64ebdffa763d2",
            "0x191086693aae0271415913df25ae8abdd2445432c900028ee67b21f49cbcd719"
        ]
    ],
    []
]

Receipt
f9014bf8a301829022f89df89b9460e69b73db38d52c70690a8efcee30383190cdfaf863a0ddf252ad1be2c89b69c2b068fc378daa952ba7f163c4a11628f55a4df523b3efa0000000000000000000000000942f397b7f4391b43115395f469c63072aed6e41a0000000000000000000000000911d6b77014fa58afd85be49e5148cbeaa3fee39a000000000000000000000000000000000000000000000000000000000000003e8f8a40183012044f89df89b9460e69b73db38d52c70690a8efcee30383190cdfaf863a0ddf252ad1be2c89b69c2b068fc378daa952ba7f163c4a11628f55a4df523b3efa0000000000000000000000000942f397b7f4391b43115395f469c63072aed6e41a0000000000000000000000000911d6b77014fa58afd85be49e5148cbeaa3fee39a000000000000000000000000000000000000000000000000000000000000003e8
[
    [
        "0x01",
        "0x9022",
        [
            [
                "0x60e69b73db38d52c70690a8efcee30383190cdfa",
                [
                    "0xddf252ad1be2c89b69c2b068fc378daa952ba7f163c4a11628f55a4df523b3ef",
                    "0x000000000000000000000000942f397b7f4391b43115395f469c63072aed6e41",
                    "0x000000000000000000000000911d6b77014fa58afd85be49e5148cbeaa3fee39"
                ],
                "0x00000000000000000000000000000000000000000000000000000000000003e8"
            ]
        ]
    ],
    [
        "0x01",
        "0x012044",
        [
            [
                "0x60e69b73db38d52c70690a8efcee30383190cdfa",
                [
                    "0xddf252ad1be2c89b69c2b068fc378daa952ba7f163c4a11628f55a4df523b3ef",
                    "0x000000000000000000000000942f397b7f4391b43115395f469c63072aed6e41",
                    "0x000000000000000000000000911d6b77014fa58afd85be49e5148cbeaa3fee39"
                ],
                "0x00000000000000000000000000000000000000000000000000000000000003e8"
            ]
        ]
    ]
]