[] -> RLP: 0xc0 -> keccak-256: 1dcc4de8dec75d7aab85b567b6ccd41ad312451b948a7413f0a142fd40d49347
nil(go) -> keccak-256 -> 56e81f171bcc55a6ff8345e692c0f86e5b48e01b996cadc001622fb5e363b421
"" -> keccak-256: c5d2460186f7233c927e7db2dcc703c0e500b653ca82273b7bfad8045d85a470

diff
- 제외 목록
-- LastBlock(4c617374426c6f636b)
-- LastFast(4c61737446617374)
-- LastHeader(4c617374486561646572)
-- SnapshotJournal(536e617073686f744a6f75726e616c)

DB스키마의 관심 prefix 체크
- 0x48{BlockHash} :블록번호
- 0x62{BlockHash}{BlockNumber} : BlockBody -> [[트랜잭셕 목록],[UncleHeader목록]]
- 0x63{BytecodeHash} : {Bytecode}
- 0x68{BlockNumber}6e : BlockHash
- 0x68{BlockNumber}{BlockHash} : BlockHeader
- 0x68{BlockNumber}{BlockHash}74: Difficulty
- 0x6c{TransactionHash} : {TxLookupPrefix} <- BlockNumber
- 0x72{BlockNumber}{BlockHash} : Receipts

[
  '124ae6dc1384773c061072735b07b71a83166e1f56a60571146f47195b628d11 : f85180808080a0d5fadd65493e263392ee3bc20eab3b5ac90ec85ae25e9549cc9bae097e512c9280a0200d82fc183bf63c9110d154b405a5f7984d5bd55d3dafc3f8d971ae31e437e780808080808080808080',
  '200d82fc183bf63c9110d154b405a5f7984d5bd55d3dafc3f8d971ae31e437e7 : f872a035eca67d2c0211b30a217d6eb1c4804baeb869b5f75902493a5607c98ed42c61b84ff84d018936518b1b2d2d680000a056e81f171bcc55a6ff8345e692c0f86e5b48e01b996cadc001622fb5e363b421a0c5d2460186f7233c927e7db2dcc703c0e500b653ca82273b7bfad8045d85a470',

  '4813c4e8a4c8432f0c4a67e32572fdb6ae55d4544803c566523f0b14a1b4a55ce2 : 0000000000000001',
  '5472616e73616374696f6e496e6465785461696c : 0000000000000000',
  '62000000000000000113c4e8a4c8432f0c4a67e32572fdb6ae55d4544803c566523f0b14a1b4a55ce2 : f9073df90739f90736808506fc23ac008307cfe38080b906e1608060405234801561001057600080fd5b506127106000803373ffffffffffffffffffffffffffffffffffffffff1673ffffffffffffffffffffffffffffffffffffffff1681526020019081526020016000208190555061067c806100656000396000f3fe608060405234801561001057600080fd5b50600436106100365760003560e01c806370a082311461003b578063a9059cbb1461006b575b600080fd5b61005560048036038101906100509190610355565b61009b565b604051610062919061039b565b60405180910390f35b610085600480360381019061008091906103e2565b6100e3565b604051610092919061043d565b60405180910390f35b60008060008373ffffffffffffffffffffffffffffffffffffffff1673ffffffffffffffffffffffffffffffffffffffff168152602001908152602001600020549050919050565b60008073ffffffffffffffffffffffffffffffffffffffff168373ffffffffffffffffffffffffffffffffffffffff1603610153576040517f08c379a000000000000000000000000000000000000000000000000000000000815260040161014a906104db565b60405180910390fd5b600033905060008060008373ffffffffffffffffffffffffffffffffffffffff1673ffffffffffffffffffffffffffffffffffffffff168152602001908152602001600020549050838110156101de576040517f08c379a00000000000000000000000000000000000000000000000000000000081526004016101d59061056d565b60405180910390fd5b83816101ea91906105bc565b6000808473ffffffffffffffffffffffffffffffffffffffff1673ffffffffffffffffffffffffffffffffffffffff16815260200190815260200160002081905550836000808773ffffffffffffffffffffffffffffffffffffffff1673ffffffffffffffffffffffffffffffffffffffff168152602001908152602001600020600082825461027a91906105f0565b925050819055508473ffffffffffffffffffffffffffffffffffffffff168273ffffffffffffffffffffffffffffffffffffffff167fddf252ad1be2c89b69c2b068fc378daa952ba7f163c4a11628f55a4df523b3ef866040516102de919061039b565b60405180910390a360019250505092915050565b600080fd5b600073ffffffffffffffffffffffffffffffffffffffff82169050919050565b6000610322826102f7565b9050919050565b61033281610317565b811461033d57600080fd5b50565b60008135905061034f81610329565b92915050565b60006020828403121561036b5761036a6102f2565b5b600061037984828501610340565b91505092915050565b6000819050919050565b61039581610382565b82525050565b60006020820190506103b0600083018461038c565b92915050565b6103bf81610382565b81146103ca57600080fd5b50565b6000813590506103dc816103b6565b92915050565b600080604083850312156103f9576103f86102f2565b5b600061040785828601610340565b9250506020610418858286016103cd565b9150509250929050565b60008115159050919050565b61043781610422565b82525050565b6000602082019050610452600083018461042e565b92915050565b600082825260208201905092915050565b7f45524332303a207472616e7366657220746f20746865207a65726f206164647260008201527f6573730000000000000000000000000000000000000000000000000000000000602082015250565b60006104c5602383610458565b91506104d082610469565b604082019050919050565b600060208201905081810360008301526104f4816104b8565b9050919050565b7f45524332303a207472616e7366657220616d6f756e742065786365656473206260008201527f616c616e63650000000000000000000000000000000000000000000000000000602082015250565b6000610557602683610458565b9150610562826104fb565b604082019050919050565b600060208201905081810360008301526105868161054a565b9050919050565b7f4e487b7100000000000000000000000000000000000000000000000000000000600052601160045260246000fd5b60006105c782610382565b91506105d283610382565b9250828210156105e5576105e461058d565b5b828203905092915050565b60006105fb82610382565b915061060683610382565b9250827fffffffffffffffffffffffffffffffffffffffffffffffffffffffffffffffff0382111561063b5761063a61058d565b5b82820190509291505056fea2646970667358221220a1d5cf32f5a4750bfedb554f14e17971a4b56b2272dd29d702bc4a408c0c930064736f6c634300080d00338224cda077779bf6388652ad753cc9e59cb81253fcb5229a1370baad709cd4586bb8213ca040c8493a745d73d472ad6179af5589268189cf3221c21d0cabd84f538600c532c0',
  '6307d66a4e1d89094cab8479602a51082c45b332b0ce73399843d3030a905cb055 : 608060405234801561001057600080fd5b50600436106100365760003560e01c806370a082311461003b578063a9059cbb1461006b575b600080fd5b61005560048036038101906100509190610355565b61009b565b604051610062919061039b565b60405180910390f35b610085600480360381019061008091906103e2565b6100e3565b604051610092919061043d565b60405180910390f35b60008060008373ffffffffffffffffffffffffffffffffffffffff1673ffffffffffffffffffffffffffffffffffffffff168152602001908152602001600020549050919050565b60008073ffffffffffffffffffffffffffffffffffffffff168373ffffffffffffffffffffffffffffffffffffffff1603610153576040517f08c379a000000000000000000000000000000000000000000000000000000000815260040161014a906104db565b60405180910390fd5b600033905060008060008373ffffffffffffffffffffffffffffffffffffffff1673ffffffffffffffffffffffffffffffffffffffff168152602001908152602001600020549050838110156101de576040517f08c379a00000000000000000000000000000000000000000000000000000000081526004016101d59061056d565b60405180910390fd5b83816101ea91906105bc565b6000808473ffffffffffffffffffffffffffffffffffffffff1673ffffffffffffffffffffffffffffffffffffffff16815260200190815260200160002081905550836000808773ffffffffffffffffffffffffffffffffffffffff1673ffffffffffffffffffffffffffffffffffffffff168152602001908152602001600020600082825461027a91906105f0565b925050819055508473ffffffffffffffffffffffffffffffffffffffff168273ffffffffffffffffffffffffffffffffffffffff167fddf252ad1be2c89b69c2b068fc378daa952ba7f163c4a11628f55a4df523b3ef866040516102de919061039b565b60405180910390a360019250505092915050565b600080fd5b600073ffffffffffffffffffffffffffffffffffffffff82169050919050565b6000610322826102f7565b9050919050565b61033281610317565b811461033d57600080fd5b50565b60008135905061034f81610329565b92915050565b60006020828403121561036b5761036a6102f2565b5b600061037984828501610340565b91505092915050565b6000819050919050565b61039581610382565b82525050565b60006020820190506103b0600083018461038c565b92915050565b6103bf81610382565b81146103ca57600080fd5b50565b6000813590506103dc816103b6565b92915050565b600080604083850312156103f9576103f86102f2565b5b600061040785828601610340565b9250506020610418858286016103cd565b9150509250929050565b60008115159050919050565b61043781610422565b82525050565b6000602082019050610452600083018461042e565b92915050565b600082825260208201905092915050565b7f45524332303a207472616e7366657220746f20746865207a65726f206164647260008201527f6573730000000000000000000000000000000000000000000000000000000000602082015250565b60006104c5602383610458565b91506104d082610469565b604082019050919050565b600060208201905081810360008301526104f4816104b8565b9050919050565b7f45524332303a207472616e7366657220616d6f756e742065786365656473206260008201527f616c616e63650000000000000000000000000000000000000000000000000000602082015250565b6000610557602683610458565b9150610562826104fb565b604082019050919050565b600060208201905081810360008301526105868161054a565b9050919050565b7f4e487b7100000000000000000000000000000000000000000000000000000000600052601160045260246000fd5b60006105c782610382565b91506105d283610382565b9250828210156105e5576105e461058d565b5b828203905092915050565b60006105fb82610382565b915061060683610382565b9250827fffffffffffffffffffffffffffffffffffffffffffffffffffffffffffffffff0382111561063b5761063a61058d565b5b82820190509291505056fea2646970667358221220a1d5cf32f5a4750bfedb554f14e17971a4b56b2272dd29d702bc4a408c0c930064736f6c634300080d0033',

  '64463b608bf4aec320f424e007ed9f9a6fbe04dbaacc8c18f60e27fb3a16a6d1 : e6a120e3540e6242270704338b7fe85d1cd55f25c3cda9d49bcc86da3da724a0356bb583822710',

  '68000000000000000113c4e8a4c8432f0c4a67e32572fdb6ae55d4544803c566523f0b14a1b4a55ce2 : f90214a0935fc1ee9e74d18005508b2a2aec8fd77d5842e384db05089ea6add7194396dca01dcc4de8dec75d7aab85b567b6ccd41ad312451b948a7413f0a142fd40d4934794942f397b7f4391b43115395f469c63072aed6e41a0124ae6dc1384773c061072735b07b71a83166e1f56a60571146f47195b628d11a006a4aeb11fc81dceed594346493507b250b7da6dd80d99083c9d10da30aa8084a0706cc684247433de288c9b13b3b9c661bf929d92018288245fafd763f2b1869cb901000000000000000000000000000000000000000000000000000000000000000000000000000000000000000000000000000000000000000000000000000000000000000000000000000000000000000000000000000000000000000000000000000000000000000000000000000000000000000000000000000000000000000000000000000000000000000000000000000000000000000000000000000000000000000000000000000000000000000000000000000000000000000000000000000000000000000000000000000000000000000000000000000000000000000000000000000000000000000000000000000000000000000000000000000000000083020000018401c9c3808307cfe384626c460099d883010a12846765746888676f312e31382e31856c696e7578a0426b6300703a36b84b4eebfce8227ab8fe99db684809d2279143183128a3958b8816da52a495a3ba1a',
  '68000000000000000113c4e8a4c8432f0c4a67e32572fdb6ae55d4544803c566523f0b14a1b4a55ce274 : 83020001',
  '6800000000000000016e : 13c4e8a4c8432f0c4a67e32572fdb6ae55d4544803c566523f0b14a1b4a55ce2',
  '6c685acb0d0a71dd14a09c1b2dedff6d04e987bcaf24f8a7e2d6113a7ea7ab018f : 01',
  '72000000000000000113c4e8a4c8432f0c4a67e32572fdb6ae55d4544803c566523f0b14a1b4a55ce2 : c7c6018307cfe3c0',

  'd5fadd65493e263392ee3bc20eab3b5ac90ec85ae25e9549cc9bae097e512c92 : f869a034e229de97d6dcb0cff85acd0eabdd23b939f8cc1cc1ca0595aca9135b1243b9b846f8440180a064463b608bf4aec320f424e007ed9f9a6fbe04dbaacc8c18f60e27fb3a16a6d1a007d66a4e1d89094cab8479602a51082c45b332b0ce73399843d3030a905cb055'
]


48 headerNumberPrefix = []byte("H") // headerNumberPrefix + hash -> num (uint64 big endian)
48{BlockHash} : {BlockNumber}
- '4813c4e8a4c8432f0c4a67e32572fdb6ae55d4544803c566523f0b14a1b4a55ce2 : 0000000000000001'

5472616e73616374696f6e496e6465785461696c : {TransactionIndexTail}
- - HexToString(5472616e73616374696f6e496e6465785461696c) = TransactionIndexTail

0x62{BlockHash}{BlockNumber} : BlockBody -> (확인필요) [[트랜잭셕 목록],[UncleHeader목록]]
- '62000000000000000113c4e8a4c8432f0c4a67e32572fdb6ae55d4544803c566523f0b14a1b4a55ce2 : f9073df90739f90736808506fc23ac008307cfe38080b906e1608060405234801561001057600080fd5b506127106000803373ffffffffffffffffffffffffffffffffffffffff1673ffffffffffffffffffffffffffffffffffffffff1681526020019081526020016000208190555061067c806100656000396000f3fe608060405234801561001057600080fd5b50600436106100365760003560e01c806370a082311461003b578063a9059cbb1461006b575b600080fd5b61005560048036038101906100509190610355565b61009b565b604051610062919061039b565b60405180910390f35b610085600480360381019061008091906103e2565b6100e3565b604051610092919061043d565b60405180910390f35b60008060008373ffffffffffffffffffffffffffffffffffffffff1673ffffffffffffffffffffffffffffffffffffffff168152602001908152602001600020549050919050565b60008073ffffffffffffffffffffffffffffffffffffffff168373ffffffffffffffffffffffffffffffffffffffff1603610153576040517f08c379a000000000000000000000000000000000000000000000000000000000815260040161014a906104db565b60405180910390fd5b600033905060008060008373ffffffffffffffffffffffffffffffffffffffff1673ffffffffffffffffffffffffffffffffffffffff168152602001908152602001600020549050838110156101de576040517f08c379a00000000000000000000000000000000000000000000000000000000081526004016101d59061056d565b60405180910390fd5b83816101ea91906105bc565b6000808473ffffffffffffffffffffffffffffffffffffffff1673ffffffffffffffffffffffffffffffffffffffff16815260200190815260200160002081905550836000808773ffffffffffffffffffffffffffffffffffffffff1673ffffffffffffffffffffffffffffffffffffffff168152602001908152602001600020600082825461027a91906105f0565b925050819055508473ffffffffffffffffffffffffffffffffffffffff168273ffffffffffffffffffffffffffffffffffffffff167fddf252ad1be2c89b69c2b068fc378daa952ba7f163c4a11628f55a4df523b3ef866040516102de919061039b565b60405180910390a360019250505092915050565b600080fd5b600073ffffffffffffffffffffffffffffffffffffffff82169050919050565b6000610322826102f7565b9050919050565b61033281610317565b811461033d57600080fd5b50565b60008135905061034f81610329565b92915050565b60006020828403121561036b5761036a6102f2565b5b600061037984828501610340565b91505092915050565b6000819050919050565b61039581610382565b82525050565b60006020820190506103b0600083018461038c565b92915050565b6103bf81610382565b81146103ca57600080fd5b50565b6000813590506103dc816103b6565b92915050565b600080604083850312156103f9576103f86102f2565b5b600061040785828601610340565b9250506020610418858286016103cd565b9150509250929050565b60008115159050919050565b61043781610422565b82525050565b6000602082019050610452600083018461042e565b92915050565b600082825260208201905092915050565b7f45524332303a207472616e7366657220746f20746865207a65726f206164647260008201527f6573730000000000000000000000000000000000000000000000000000000000602082015250565b60006104c5602383610458565b91506104d082610469565b604082019050919050565b600060208201905081810360008301526104f4816104b8565b9050919050565b7f45524332303a207472616e7366657220616d6f756e742065786365656473206260008201527f616c616e63650000000000000000000000000000000000000000000000000000602082015250565b6000610557602683610458565b9150610562826104fb565b604082019050919050565b600060208201905081810360008301526105868161054a565b9050919050565b7f4e487b7100000000000000000000000000000000000000000000000000000000600052601160045260246000fd5b60006105c782610382565b91506105d283610382565b9250828210156105e5576105e461058d565b5b828203905092915050565b60006105fb82610382565b915061060683610382565b9250827fffffffffffffffffffffffffffffffffffffffffffffffffffffffffffffffff0382111561063b5761063a61058d565b5b82820190509291505056fea2646970667358221220a1d5cf32f5a4750bfedb554f14e17971a4b56b2272dd29d702bc4a408c0c930064736f6c634300080d00338224cda077779bf6388652ad753cc9e59cb81253fcb5229a1370baad709cd4586bb8213ca040c8493a745d73d472ad6179af5589268189cf3221c21d0cabd84f538600c532c0'
[[[
    "0x",
    "0x06fc23ac00",
    "0x07cfe3",
    "0x",
    "0x",
    "0x608060405234801561001057600080fd5b506127106000803373ffffffffffffffffffffffffffffffffffffffff1673ffffffffffffffffffffffffffffffffffffffff1681526020019081526020016000208190555061067c806100656000396000f3fe608060405234801561001057600080fd5b50600436106100365760003560e01c806370a082311461003b578063a9059cbb1461006b575b600080fd5b61005560048036038101906100509190610355565b61009b565b604051610062919061039b565b60405180910390f35b610085600480360381019061008091906103e2565b6100e3565b604051610092919061043d565b60405180910390f35b60008060008373ffffffffffffffffffffffffffffffffffffffff1673ffffffffffffffffffffffffffffffffffffffff168152602001908152602001600020549050919050565b60008073ffffffffffffffffffffffffffffffffffffffff168373ffffffffffffffffffffffffffffffffffffffff1603610153576040517f08c379a000000000000000000000000000000000000000000000000000000000815260040161014a906104db565b60405180910390fd5b600033905060008060008373ffffffffffffffffffffffffffffffffffffffff1673ffffffffffffffffffffffffffffffffffffffff168152602001908152602001600020549050838110156101de576040517f08c379a00000000000000000000000000000000000000000000000000000000081526004016101d59061056d565b60405180910390fd5b83816101ea91906105bc565b6000808473ffffffffffffffffffffffffffffffffffffffff1673ffffffffffffffffffffffffffffffffffffffff16815260200190815260200160002081905550836000808773ffffffffffffffffffffffffffffffffffffffff1673ffffffffffffffffffffffffffffffffffffffff168152602001908152602001600020600082825461027a91906105f0565b925050819055508473ffffffffffffffffffffffffffffffffffffffff168273ffffffffffffffffffffffffffffffffffffffff167fddf252ad1be2c89b69c2b068fc378daa952ba7f163c4a11628f55a4df523b3ef866040516102de919061039b565b60405180910390a360019250505092915050565b600080fd5b600073ffffffffffffffffffffffffffffffffffffffff82169050919050565b6000610322826102f7565b9050919050565b61033281610317565b811461033d57600080fd5b50565b60008135905061034f81610329565b92915050565b60006020828403121561036b5761036a6102f2565b5b600061037984828501610340565b91505092915050565b6000819050919050565b61039581610382565b82525050565b60006020820190506103b0600083018461038c565b92915050565b6103bf81610382565b81146103ca57600080fd5b50565b6000813590506103dc816103b6565b92915050565b600080604083850312156103f9576103f86102f2565b5b600061040785828601610340565b9250506020610418858286016103cd565b9150509250929050565b60008115159050919050565b61043781610422565b82525050565b6000602082019050610452600083018461042e565b92915050565b600082825260208201905092915050565b7f45524332303a207472616e7366657220746f20746865207a65726f206164647260008201527f6573730000000000000000000000000000000000000000000000000000000000602082015250565b60006104c5602383610458565b91506104d082610469565b604082019050919050565b600060208201905081810360008301526104f4816104b8565b9050919050565b7f45524332303a207472616e7366657220616d6f756e742065786365656473206260008201527f616c616e63650000000000000000000000000000000000000000000000000000602082015250565b6000610557602683610458565b9150610562826104fb565b604082019050919050565b600060208201905081810360008301526105868161054a565b9050919050565b7f4e487b7100000000000000000000000000000000000000000000000000000000600052601160045260246000fd5b60006105c782610382565b91506105d283610382565b9250828210156105e5576105e461058d565b5b828203905092915050565b60006105fb82610382565b915061060683610382565b9250827fffffffffffffffffffffffffffffffffffffffffffffffffffffffffffffffff0382111561063b5761063a61058d565b5b82820190509291505056fea2646970667358221220a1d5cf32f5a4750bfedb554f14e17971a4b56b2272dd29d702bc4a408c0c930064736f6c634300080d0033",
    "0x24cd",
    "0x77779bf6388652ad753cc9e59cb81253fcb5229a1370baad709cd4586bb8213c",
    "0x40c8493a745d73d472ad6179af5589268189cf3221c21d0cabd84f538600c532"
]],[]]
(nonce, gasPrice, gasLimit, to, value, data, v, r, s)

63 CodePrefix            = []byte("c") // CodePrefix + code hash -> account code
63{BytecodeHash} : {Bytecode}
- '6307d66a4e1d89094cab8479602a51082c45b332b0ce73399843d3030a905cb055 : 608060405234801561001057600080fd5b50600436106100365760003560e01c806370a082311461003b578063a9059cbb1461006b575b600080fd5b61005560048036038101906100509190610355565b61009b565b604051610062919061039b565b60405180910390f35b610085600480360381019061008091906103e2565b6100e3565b604051610092919061043d565b60405180910390f35b60008060008373ffffffffffffffffffffffffffffffffffffffff1673ffffffffffffffffffffffffffffffffffffffff168152602001908152602001600020549050919050565b60008073ffffffffffffffffffffffffffffffffffffffff168373ffffffffffffffffffffffffffffffffffffffff1603610153576040517f08c379a000000000000000000000000000000000000000000000000000000000815260040161014a906104db565b60405180910390fd5b600033905060008060008373ffffffffffffffffffffffffffffffffffffffff1673ffffffffffffffffffffffffffffffffffffffff168152602001908152602001600020549050838110156101de576040517f08c379a00000000000000000000000000000000000000000000000000000000081526004016101d59061056d565b60405180910390fd5b83816101ea91906105bc565b6000808473ffffffffffffffffffffffffffffffffffffffff1673ffffffffffffffffffffffffffffffffffffffff16815260200190815260200160002081905550836000808773ffffffffffffffffffffffffffffffffffffffff1673ffffffffffffffffffffffffffffffffffffffff168152602001908152602001600020600082825461027a91906105f0565b925050819055508473ffffffffffffffffffffffffffffffffffffffff168273ffffffffffffffffffffffffffffffffffffffff167fddf252ad1be2c89b69c2b068fc378daa952ba7f163c4a11628f55a4df523b3ef866040516102de919061039b565b60405180910390a360019250505092915050565b600080fd5b600073ffffffffffffffffffffffffffffffffffffffff82169050919050565b6000610322826102f7565b9050919050565b61033281610317565b811461033d57600080fd5b50565b60008135905061034f81610329565b92915050565b60006020828403121561036b5761036a6102f2565b5b600061037984828501610340565b91505092915050565b6000819050919050565b61039581610382565b82525050565b60006020820190506103b0600083018461038c565b92915050565b6103bf81610382565b81146103ca57600080fd5b50565b6000813590506103dc816103b6565b92915050565b600080604083850312156103f9576103f86102f2565b5b600061040785828601610340565b9250506020610418858286016103cd565b9150509250929050565b60008115159050919050565b61043781610422565b82525050565b6000602082019050610452600083018461042e565b92915050565b600082825260208201905092915050565b7f45524332303a207472616e7366657220746f20746865207a65726f206164647260008201527f6573730000000000000000000000000000000000000000000000000000000000602082015250565b60006104c5602383610458565b91506104d082610469565b604082019050919050565b600060208201905081810360008301526104f4816104b8565b9050919050565b7f45524332303a207472616e7366657220616d6f756e742065786365656473206260008201527f616c616e63650000000000000000000000000000000000000000000000000000602082015250565b6000610557602683610458565b9150610562826104fb565b604082019050919050565b600060208201905081810360008301526105868161054a565b9050919050565b7f4e487b7100000000000000000000000000000000000000000000000000000000600052601160045260246000fd5b60006105c782610382565b91506105d283610382565b9250828210156105e5576105e461058d565b5b828203905092915050565b60006105fb82610382565b915061060683610382565b9250827fffffffffffffffffffffffffffffffffffffffffffffffffffffffffffffffff0382111561063b5761063a61058d565b5b82820190509291505056fea2646970667358221220a1d5cf32f5a4750bfedb554f14e17971a4b56b2272dd29d702bc4a408c0c930064736f6c634300080d0033'
- 아마도 init(constructor) 코드는 제거되어 있음.

0x68{BlockNumber}6e : BlockHash
0x68{BlockNumber}{BlockHash}74: Difficulty
0x68{BlockNumber}{BlockHash} : BlockHeader

- '6800000000000000016e : 13c4e8a4c8432f0c4a67e32572fdb6ae55d4544803c566523f0b14a1b4a55ce2',
- '68000000000000000113c4e8a4c8432f0c4a67e32572fdb6ae55d4544803c566523f0b14a1b4a55ce274 : 83020001',
- '68000000000000000113c4e8a4c8432f0c4a67e32572fdb6ae55d4544803c566523f0b14a1b4a55ce2 : f90214a0935fc1ee9e74d18005508b2a2aec8fd77d5842e384db05089ea6add7194396dca01dcc4de8dec75d7aab85b567b6ccd41ad312451b948a7413f0a142fd40d4934794942f397b7f4391b43115395f469c63072aed6e41a0124ae6dc1384773c061072735b07b71a83166e1f56a60571146f47195b628d11a006a4aeb11fc81dceed594346493507b250b7da6dd80d99083c9d10da30aa8084a0706cc684247433de288c9b13b3b9c661bf929d92018288245fafd763f2b1869cb901000000000000000000000000000000000000000000000000000000000000000000000000000000000000000000000000000000000000000000000000000000000000000000000000000000000000000000000000000000000000000000000000000000000000000000000000000000000000000000000000000000000000000000000000000000000000000000000000000000000000000000000000000000000000000000000000000000000000000000000000000000000000000000000000000000000000000000000000000000000000000000000000000000000000000000000000000000000000000000000000000000000000000000000000000000000083020000018401c9c3808307cfe384626c460099d883010a12846765746888676f312e31382e31856c696e7578a0426b6300703a36b84b4eebfce8227ab8fe99db684809d2279143183128a3958b8816da52a495a3ba1a',

[   "0x935fc1ee9e74d18005508b2a2aec8fd77d5842e384db05089ea6add7194396dc",
    "0x1dcc4de8dec75d7aab85b567b6ccd41ad312451b948a7413f0a142fd40d49347",
    "0x942f397b7f4391b43115395f469c63072aed6e41",
    "0x124ae6dc1384773c061072735b07b71a83166e1f56a60571146f47195b628d11",
    "0x06a4aeb11fc81dceed594346493507b250b7da6dd80d99083c9d10da30aa8084",
    "0x706cc684247433de288c9b13b3b9c661bf929d92018288245fafd763f2b1869c",
    "0x00000000000000000000000000000000000000000000000000000000000000000000000000000000000000000000000000000000000000000000000000000000000000000000000000000000000000000000000000000000000000000000000000000000000000000000000000000000000000000000000000000000000000000000000000000000000000000000000000000000000000000000000000000000000000000000000000000000000000000000000000000000000000000000000000000000000000000000000000000000000000000000000000000000000000000000000000000000000000000000000000000000000000000000000000000000",
    "0x020000",
    "0x01",
    "0x01c9c380",  // 30000000
    "0x07cfe3",  // 511971
    "0x626c4600",  // 1651262976, 2022년 4월 30일 토요일 오전 5:09:36 GMT+09:00
    "0xd883010a12846765746888676f312e31382e31856c696e7578",
    "0x426b6300703a36b84b4eebfce8227ab8fe99db684809d2279143183128a3958b",
    "0x16da52a495a3ba1a"]
[ParentHash, UncleHash, Coinbase, StateRoot, TransactionRoot, ReceiptsRoot, LogBloom,
    Difficulty, BlockNumber, GasLimit, GasUsed, Timestamp, ExtraData, MixHash, Nonce]

// StateRoot        : 0x124ae6dc1384773c061072735b07b71a83166e1f56a60571146f47195b628d11
// TransactionRoot  : 0x06a4aeb11fc81dceed594346493507b250b7da6dd80d99083c9d10da30aa8084
// ReceiptsRoot     : 0x706cc684247433de288c9b13b3b9c661bf929d92018288245fafd763f2b1869c

// TransactionRoot, ReceiptsRoot 어떻게 계산하지?

// ExtraData: ["0x010a12","0x67657468","0x676f312e31382e31","0x6c696e7578"]
"0x010a12" geth go1.18.1 linux


6c txLookupPrefix        = []byte("l") // txLookupPrefix + hash -> transaction/receipt lookup metadata
6c{TransactionHash} : {TxLookupPrefix}
- '6c685acb0d0a71dd14a09c1b2dedff6d04e987bcaf24f8a7e2d6113a7ea7ab018f : 01',
- 01이 의미하는 것을 모르겠다. <- BlockNumber

72{BlockNumber}{BlockHash} : Receipts
- '72000000000000000113c4e8a4c8432f0c4a67e32572fdb6ae55d4544803c566523f0b14a1b4a55ce2 : c7c6018307cfe3c0',
  => [["0x01","0x07cfe3",  // 511971
        []
    ]]

Receipt: https://github.com/ethereum/go-ethereum/blob/master/core/types/receipt.go#L52
[PostStateOrStatus, CumulativeGasUsed, Logs]



//==== State 구분
[
  '124ae6dc1384773c061072735b07b71a83166e1f56a60571146f47195b628d11 : f85180808080a0d5fadd65493e263392ee3bc20eab3b5ac90ec85ae25e9549cc9bae097e512c9280a0200d82fc183bf63c9110d154b405a5f7984d5bd55d3dafc3f8d971ae31e437e780808080808080808080',
  '200d82fc183bf63c9110d154b405a5f7984d5bd55d3dafc3f8d971ae31e437e7 : f872a035eca67d2c0211b30a217d6eb1c4804baeb869b5f75902493a5607c98ed42c61b84ff84d018936518b1b2d2d680000a056e81f171bcc55a6ff8345e692c0f86e5b48e01b996cadc001622fb5e363b421a0c5d2460186f7233c927e7db2dcc703c0e500b653ca82273b7bfad8045d85a470',
  '64463b608bf4aec320f424e007ed9f9a6fbe04dbaacc8c18f60e27fb3a16a6d1 : e6a120e3540e6242270704338b7fe85d1cd55f25c3cda9d49bcc86da3da724a0356bb583822710',
  'd5fadd65493e263392ee3bc20eab3b5ac90ec85ae25e9549cc9bae097e512c92 : f869a034e229de97d6dcb0cff85acd0eabdd23b939f8cc1cc1ca0595aca9135b1243b9b846f8440180a064463b608bf4aec320f424e007ed9f9a6fbe04dbaacc8c18f60e27fb3a16a6d1a007d66a4e1d89094cab8479602a51082c45b332b0ce73399843d3030a905cb055'
]

// StateRoot        : 0x124ae6dc1384773c061072735b07b71a83166e1f56a60571146f47195b628d11
  BranchNode: ["0x","0x","0x","0x","0xd5fadd65493e263392ee3bc20eab3b5ac90ec85ae25e9549cc9bae097e512c92","0x","0x200d82fc183bf63c9110d154b405a5f7984d5bd55d3dafc3f8d971ae31e437e7","0x","0x","0x","0x","0x","0x","0x","0x","0x","0x"]
    - 4: 0xd5fadd65493e263392ee3bc20eab3b5ac90ec85ae25e9549cc9bae097e512c92
      ["0x34e229de97d6dcb0cff85acd0eabdd23b939f8cc1cc1ca0595aca9135b1243b9","0xf8440180a064463b608bf4aec320f424e007ed9f9a6fbe04dbaacc8c18f60e27fb3a16a6d1a007d66a4e1d89094cab8479602a51082c45b332b0ce73399843d3030a905cb055"]
        => keccak-256(0x60e69B73db38D52C70690a8EfCeE30383190CDFA) = 44e229de97d6dcb0cff85acd0eabdd23b939f8cc1cc1ca0595aca9135b1243b9
          + 4
          + 4e229de97d6dcb0cff85acd0eabdd23b939f8cc1cc1ca0595aca9135b1243b9
        => ["0x01","0x","0x64463b608bf4aec320f424e007ed9f9a6fbe04dbaacc8c18f60e27fb3a16a6d1","0x07d66a4e1d89094cab8479602a51082c45b332b0ce73399843d3030a905cb055"]
           (Nonce, Balance, StorageHash, CodeHash)
           (1, 0, StorageRoot, 63{CodeHash}로 bytecode조회)
           StorageHash: 64463b608bf4aec320f424e007ed9f9a6fbe04dbaacc8c18f60e27fb3a16a6d1 : e6a120e3540e6242270704338b7fe85d1cd55f25c3cda9d49bcc86da3da724a0356bb583822710
           keccak(e6a120e3540e6242270704338b7fe85d1cd55f25c3cda9d49bcc86da3da724a0356bb583822710) = 64463b608bf4aec320f424e007ed9f9a6fbe04dbaacc8c18f60e27fb3a16a6d1
           ["0x20e3540e6242270704338b7fe85d1cd55f25c3cda9d49bcc86da3da724a0356bb5","0x822710"] // [, 10000]
           contractAddress : 60e69B73db38D52C70690a8EfCeE30383190CDFA
           mapping(address => uint256) _balances slot: 0, address: 942f397b7f4391b43115395f469c63072aed6e41

           hash(000000000000000000000000942f397b7f4391b43115395f469c63072aed6e410000000000000000000000000000000000000000000000000000000000000000) = 2f312f0e66b602cd92e13fa998f8093da22ed2e820633028f87b81c0c838a33d
           hash(2f312f0e66b602cd92e13fa998f8093da22ed2e820633028f87b81c0c838a33d) = e3540e6242270704338b7fe85d1cd55f25c3cda9d49bcc86da3da724a0356bb5


    - 6: 0x200d82fc183bf63c9110d154b405a5f7984d5bd55d3dafc3f8d971ae31e437e7 => e6a120e3540e6242270704338b7fe85d1cd55f25c3cda9d49bcc86da3da724a0356bb583822710
      ["0x35eca67d2c0211b30a217d6eb1c4804baeb869b5f75902493a5607c98ed42c61","0xf84d018936518b1b2d2d680000a056e81f171bcc55a6ff8345e692c0f86e5b48e01b996cadc001622fb5e363b421a0c5d2460186f7233c927e7db2dcc703c0e500b653ca82273b7bfad8045d85a470"]
        keccak-256(942F397B7f4391B43115395F469c63072aEd6E41) = 65eca67d2c0211b30a217d6eb1c4804baeb869b5f75902493a5607c98ed42c61
          + 6
          + 5eca67d2c0211b30a217d6eb1c4804baeb869b5f75902493a5607c98ed42c61
        => ["0x01","0x36518b1b2d2d680000","0x56e81f171bcc55a6ff8345e692c0f86e5b48e01b996cadc001622fb5e363b421","0xc5d2460186f7233c927e7db2dcc703c0e500b653ca82273b7bfad8045d85a470"]
           (Nonce, Balance, StorageHash, CodeHash)
           (1, 1002.000000000000000000 (Reward: 2ETH), nil, "")



// TransactionRoot  : 0x06a4aeb11fc81dceed594346493507b250b7da6dd80d99083c9d10da30aa8084
// ReceiptsRoot     : 0x706cc684247433de288c9b13b3b9c661bf929d92018288245fafd763f2b1869c