[] -> RLP: 0xc0 -> keccak-256: 1dcc4de8dec75d7aab85b567b6ccd41ad312451b948a7413f0a142fd40d49347
nil(go) -> keccak-256 -> 56e81f171bcc55a6ff8345e692c0f86e5b48e01b996cadc001622fb5e363b421
"" -> keccak-256: c5d2460186f7233c927e7db2dcc703c0e500b653ca82273b7bfad8045d85a470

DB스키마의 관심 prefix 체크
- 0x48{BlockHash} :블록번호
- 0x62{BlockHash}{BlockNumber} : BlockBody -> [[트랜잭셕 목록],[UncleHeader목록]]
- 0x63{BytecodeHash} : {Bytecode}
- 0x68{BlockNumber}6e : BlockHash
- 0x68{BlockNumber}{BlockHash} : BlockHeader
- 0x68{BlockNumber}{BlockHash}74: Difficulty
- 0x6c{TransactionHash} : {TxLookupPrefix} <- BlockNumber
- 0x72{BlockNumber}{BlockHash} : Receipts

[
  '480dcff4e9a3f2f738966b65f7b1bbf2d8c5daf04d329af0632d9eee25e8131716 : 0000000000000002',
  '6200000000000000020dcff4e9a3f2f738966b65f7b1bbf2d8c5daf04d329af0632d9eee25e8131716 : f8b1f8aef8ac018506fc23ac00830f42409460e69b73db38d52c70690a8efcee30383190cdfa80b844a9059cbb000000000000000000000000911d6b77014fa58afd85be49e5148cbeaa3fee3900000000000000000000000000000000000000000000000000000000000003e88224cea09ff91eee11bcf2951d984e9449236f151725f6367b5b12480d6ebaeee69c5b23a07fd5715dc431cccabbd508cc849c875ced617749880ba8251325a38763fd814ac0',
  '6800000000000000020dcff4e9a3f2f738966b65f7b1bbf2d8c5daf04d329af0632d9eee25e8131716 : f90213a013c4e8a4c8432f0c4a67e32572fdb6ae55d4544803c566523f0b14a1b4a55ce2a01dcc4de8dec75d7aab85b567b6ccd41ad312451b948a7413f0a142fd40d4934794942f397b7f4391b43115395f469c63072aed6e41a0efd154dee7e8fe67364d4e468868e282930a9d83ba5212014b75e96ce10ea302a00f459ff05c5514df7d1d548747c471142bbcac848a3a00d412fddd3b291a9ffda0839a741b01f5774251c5150d7e2061acf05fac2a8fa63a0f7e55ec44ba5f111cb901000000000000400000000000000000000000000000000000000000000000000000000000000100000000000000000000000000000000000000000000000000000000000000000000000000000800000004000000000000000000000000000000000001000400000000000004000000000000000000000000000000001000000000000000000000000000080000000000000000000000000000000000000000000000000000000000000000000000000000000000000000000000000000000000000000000240000000000020000000000000000000000000000000000000000000000000000000000000000000000000000000000000000000000000000000000083020000028401c9c38082caba84626c47b899d883010a12846765746888676f312e31382e31856c696e7578a0941893dd052021d43a95fe338893a1fb7530ac357255814fe78188e41b5827eb88423e1e5d20ede77c',
  '6800000000000000020dcff4e9a3f2f738966b65f7b1bbf2d8c5daf04d329af0632d9eee25e813171674 : 83040001',
  '6800000000000000026e : 0dcff4e9a3f2f738966b65f7b1bbf2d8c5daf04d329af0632d9eee25e8131716',
  '6caf1ad2f6b02595cfcf8fdbb78e69be2f15e762c915dcf708fdfe3d1f02c80848 : 02',
  '7200000000000000020dcff4e9a3f2f738966b65f7b1bbf2d8c5daf04d329af0632d9eee25e8131716 : f8a5f8a30182cabaf89df89b9460e69b73db38d52c70690a8efcee30383190cdfaf863a0ddf252ad1be2c89b69c2b068fc378daa952ba7f163c4a11628f55a4df523b3efa0000000000000000000000000942f397b7f4391b43115395f469c63072aed6e41a0000000000000000000000000911d6b77014fa58afd85be49e5148cbeaa3fee39a000000000000000000000000000000000000000000000000000000000000003e8',
  '847262ebf18af9824a9bb7037c3e5912864d6d9790cb79b04ee8fe8330b9ea9c : e5a033540e6242270704338b7fe85d1cd55f25c3cda9d49bcc86da3da724a0356bb583822328',
  '8c428053dca2aea9a2b9bc459663b9a6aaf5628296a02ca15ccca761569d173d : f85180808080a0e0056dc8ba66f8d0ce2ea7e213d58de0584308aa1c11e194a677e8ec427ef659808080808080808080a0847262ebf18af9824a9bb7037c3e5912864d6d9790cb79b04ee8fe8330b9ea9c8080',
  'c019d4986e97099f1b1b21ca68ce3091b4b767d234a6f72776b5ce537814268f : f869a034e229de97d6dcb0cff85acd0eabdd23b939f8cc1cc1ca0595aca9135b1243b9b846f8440180a08c428053dca2aea9a2b9bc459663b9a6aaf5628296a02ca15ccca761569d173da007d66a4e1d89094cab8479602a51082c45b332b0ce73399843d3030a905cb055',
  'e0056dc8ba66f8d0ce2ea7e213d58de0584308aa1c11e194a677e8ec427ef659 : e5a03c81d6050317dd8dc89fd9c22575104536564c5a6dae6e0bd8e4b4424f3f6084838203e8',
  'e60387928816ad169a894ff5834ee9d13baf174ce385816e408741a146596670 : f872a035eca67d2c0211b30a217d6eb1c4804baeb869b5f75902493a5607c98ed42c61b84ff84d0289366d4c88947c300000a056e81f171bcc55a6ff8345e692c0f86e5b48e01b996cadc001622fb5e363b421a0c5d2460186f7233c927e7db2dcc703c0e500b653ca82273b7bfad8045d85a470',
  'efd154dee7e8fe67364d4e468868e282930a9d83ba5212014b75e96ce10ea302 : f85180808080a0c019d4986e97099f1b1b21ca68ce3091b4b767d234a6f72776b5ce537814268f80a0e60387928816ad169a894ff5834ee9d13baf174ce385816e408741a14659667080808080808080808080'
]

0x48{BlockHash} :블록번호
- '480dcff4e9a3f2f738966b65f7b1bbf2d8c5daf04d329af0632d9eee25e8131716 : 0000000000000002',

0x62{BlockHash}{BlockNumber} : BlockBody -> [[트랜잭셕 목록],[UncleHeader목록]]
- '6200000000000000020dcff4e9a3f2f738966b65f7b1bbf2d8c5daf04d329af0632d9eee25e8131716 : f8b1f8aef8ac018506fc23ac00830f42409460e69b73db38d52c70690a8efcee30383190cdfa80b844a9059cbb000000000000000000000000911d6b77014fa58afd85be49e5148cbeaa3fee3900000000000000000000000000000000000000000000000000000000000003e88224cea09ff91eee11bcf2951d984e9449236f151725f6367b5b12480d6ebaeee69c5b23a07fd5715dc431cccabbd508cc849c875ced617749880ba8251325a38763fd814ac0',
[[[
    "0x01",
    "0x06fc23ac00",
    "0x0f4240",
    "0x60e69b73db38d52c70690a8efcee30383190cdfa",
    "0x",
    "0xa9059cbb000000000000000000000000911d6b77014fa58afd85be49e5148cbeaa3fee3900000000000000000000000000000000000000000000000000000000000003e8",
    "0x24ce",
    "0x9ff91eee11bcf2951d984e9449236f151725f6367b5b12480d6ebaeee69c5b23",
    "0x7fd5715dc431cccabbd508cc849c875ced617749880ba8251325a38763fd814a"
]],[]]
(nonce, gasPrice, gasLimit, to, value, data, v, r, s)

0x68{BlockNumber}6e : BlockHash
0x68{BlockNumber}{BlockHash}74: Difficulty
0x68{BlockNumber}{BlockHash} : BlockHeader
- '6800000000000000026e : 0dcff4e9a3f2f738966b65f7b1bbf2d8c5daf04d329af0632d9eee25e8131716',
- '6800000000000000020dcff4e9a3f2f738966b65f7b1bbf2d8c5daf04d329af0632d9eee25e813171674 : 83040001',
- '6800000000000000020dcff4e9a3f2f738966b65f7b1bbf2d8c5daf04d329af0632d9eee25e8131716 : f90213a013c4e8a4c8432f0c4a67e32572fdb6ae55d4544803c566523f0b14a1b4a55ce2a01dcc4de8dec75d7aab85b567b6ccd41ad312451b948a7413f0a142fd40d4934794942f397b7f4391b43115395f469c63072aed6e41a0efd154dee7e8fe67364d4e468868e282930a9d83ba5212014b75e96ce10ea302a00f459ff05c5514df7d1d548747c471142bbcac848a3a00d412fddd3b291a9ffda0839a741b01f5774251c5150d7e2061acf05fac2a8fa63a0f7e55ec44ba5f111cb901000000000000400000000000000000000000000000000000000000000000000000000000000100000000000000000000000000000000000000000000000000000000000000000000000000000800000004000000000000000000000000000000000001000400000000000004000000000000000000000000000000001000000000000000000000000000080000000000000000000000000000000000000000000000000000000000000000000000000000000000000000000000000000000000000000000240000000000020000000000000000000000000000000000000000000000000000000000000000000000000000000000000000000000000000000000083020000028401c9c38082caba84626c47b899d883010a12846765746888676f312e31382e31856c696e7578a0941893dd052021d43a95fe338893a1fb7530ac357255814fe78188e41b5827eb88423e1e5d20ede77c',
[
    "0x13c4e8a4c8432f0c4a67e32572fdb6ae55d4544803c566523f0b14a1b4a55ce2",
    "0x1dcc4de8dec75d7aab85b567b6ccd41ad312451b948a7413f0a142fd40d49347",
    "0x942f397b7f4391b43115395f469c63072aed6e41",
    "0xefd154dee7e8fe67364d4e468868e282930a9d83ba5212014b75e96ce10ea302",
    "0x0f459ff05c5514df7d1d548747c471142bbcac848a3a00d412fddd3b291a9ffd",
    "0x839a741b01f5774251c5150d7e2061acf05fac2a8fa63a0f7e55ec44ba5f111c",
    "0x00000000004000000000000000000000000000000000000000000000000000000000000001000000000000000000000000000000000000000000000000000000000000000000000000000008000000040000000000000000000000000000000000010004000000000000040000000000000000000000000000000010000000000000000000000000000800000000000000000000000000000000000000000000000000000000000000000000000000000000000000000000000000000000000000000002400000000000200000000000000000000000000000000000000000000000000000000000000000000000000000000000000000000000000000000000",
    "0x020000",
    "0x02",
    "0x01c9c380",  // 30000000
    "0xcaba",  // 51898
    "0x626c47b8",
    "0xd883010a12846765746888676f312e31382e31856c696e7578",
    "0x941893dd052021d43a95fe338893a1fb7530ac357255814fe78188e41b5827eb",
    "0x423e1e5d20ede77c"
]
[ParentHash, UncleHash, Coinbase, StateRoot, TransactionRoot, ReceiptsRoot, LogBloom,
    Difficulty, BlockNumber, GasLimit, GasUsed, Timestamp, ExtraData, MixHash, Nonce]

// StateRoot        : "0xefd154dee7e8fe67364d4e468868e282930a9d83ba5212014b75e96ce10ea302",
// TransactionRoot  : "0x0f459ff05c5514df7d1d548747c471142bbcac848a3a00d412fddd3b291a9ffd",
// ReceiptsRoot     : "0x839a741b01f5774251c5150d7e2061acf05fac2a8fa63a0f7e55ec44ba5f111c",

// TransactionRoot, ReceiptsRoot 어떻게 계산하지?

// ExtraData: ["0x010a12","0x67657468","0x676f312e31382e31","0x6c696e7578"]
"0x010a12" geth go1.18.1 linux

0x6c{TransactionHash} : {TxLookupPrefix} <- BlockNumber
- '6caf1ad2f6b02595cfcf8fdbb78e69be2f15e762c915dcf708fdfe3d1f02c80848 : 02',



0x72{BlockNumber}{BlockHash} : Receipts
- '7200000000000000020dcff4e9a3f2f738966b65f7b1bbf2d8c5daf04d329af0632d9eee25e8131716 : f8a5f8a30182cabaf89df89b9460e69b73db38d52c70690a8efcee30383190cdfaf863a0ddf252ad1be2c89b69c2b068fc378daa952ba7f163c4a11628f55a4df523b3efa0000000000000000000000000942f397b7f4391b43115395f469c63072aed6e41a0000000000000000000000000911d6b77014fa58afd85be49e5148cbeaa3fee39a000000000000000000000000000000000000000000000000000000000000003e8',
[
    [
        "0x01",
        "0xcaba",  // 51898
        [
            [
                "0x60e69b73db38d52c70690a8efcee30383190cdfa",
                [
                    "0xddf252ad1be2c89b69c2b068fc378daa952ba7f163c4a11628f55a4df523b3ef",
                    "0x000000000000000000000000942f397b7f4391b43115395f469c63072aed6e41",
                    "0x000000000000000000000000911d6b77014fa58afd85be49e5148cbeaa3fee39"
                ],
                "0x00000000000000000000000000000000000000000000000000000000000003e8"
            ]
        ]
    ]
]

Receipt: https://github.com/ethereum/go-ethereum/blob/master/core/types/receipt.go#L52
https://github.com/ethereum/go-ethereum/blob/master/core/types/receipt.go#L93
[PostStateOrStatus, CumulativeGasUsed, Logs]
Log : [
  ContractAddress,
  Topics: [event Transfer signature, from, to]
  Data: [1000]
]

Topic event signature 생성법 확인필요

[
   '847262ebf18af9824a9bb7037c3e5912864d6d9790cb79b04ee8fe8330b9ea9c : e5a033540e6242270704338b7fe85d1cd55f25c3cda9d49bcc86da3da724a0356bb583822328',
   '8c428053dca2aea9a2b9bc459663b9a6aaf5628296a02ca15ccca761569d173d : f85180808080a0e0056dc8ba66f8d0ce2ea7e213d58de0584308aa1c11e194a677e8ec427ef659808080808080808080a0847262ebf18af9824a9bb7037c3e5912864d6d9790cb79b04ee8fe8330b9ea9c8080',
   'c019d4986e97099f1b1b21ca68ce3091b4b767d234a6f72776b5ce537814268f : f869a034e229de97d6dcb0cff85acd0eabdd23b939f8cc1cc1ca0595aca9135b1243b9b846f8440180a08c428053dca2aea9a2b9bc459663b9a6aaf5628296a02ca15ccca761569d173da007d66a4e1d89094cab8479602a51082c45b332b0ce73399843d3030a905cb055',
   'e0056dc8ba66f8d0ce2ea7e213d58de0584308aa1c11e194a677e8ec427ef659 : e5a03c81d6050317dd8dc89fd9c22575104536564c5a6dae6e0bd8e4b4424f3f6084838203e8',
   'e60387928816ad169a894ff5834ee9d13baf174ce385816e408741a146596670 : f872a035eca67d2c0211b30a217d6eb1c4804baeb869b5f75902493a5607c98ed42c61b84ff84d0289366d4c88947c300000a056e81f171bcc55a6ff8345e692c0f86e5b48e01b996cadc001622fb5e363b421a0c5d2460186f7233c927e7db2dcc703c0e500b653ca82273b7bfad8045d85a470',
   'efd154dee7e8fe67364d4e468868e282930a9d83ba5212014b75e96ce10ea302 : f85180808080a0c019d4986e97099f1b1b21ca68ce3091b4b767d234a6f72776b5ce537814268f80a0e60387928816ad169a894ff5834ee9d13baf174ce385816e408741a14659667080808080808080808080'
]

keccak-256(0x942F397B7f4391B43115395F469c63072aEd6E41) = 65eca67d2c0211b30a217d6eb1c4804baeb869b5f75902493a5607c98ed42c61
keccak-256(0x60e69B73db38D52C70690a8EfCeE30383190CDFA) = 44e229de97d6dcb0cff85acd0eabdd23b939f8cc1cc1ca0595aca9135b1243b9
keccak-256(0x911D6B77014FA58aFD85BE49e5148CBEAA3FeE39) = 4f03bebf5fb59bdb8f542d5c2129f5b920f1f792f272b92b1af58ea6e8d09cd0


// StateRoot : 0xefd154dee7e8fe67364d4e468868e282930a9d83ba5212014b75e96ce10ea302 : f85180808080a0c019d4986e97099f1b1b21ca68ce3091b4b767d234a6f72776b5ce537814268f80a0e60387928816ad169a894ff5834ee9d13baf174ce385816e408741a14659667080808080808080808080
BranchNOde: ["0x","0x","0x","0x","0xc019d4986e97099f1b1b21ca68ce3091b4b767d234a6f72776b5ce537814268f","0x","0xe60387928816ad169a894ff5834ee9d13baf174ce385816e408741a146596670","0x","0x","0x","0x","0x","0x","0x","0x","0x","0x"]
 - 4: c019d4986e97099f1b1b21ca68ce3091b4b767d234a6f72776b5ce537814268f : f869a034e229de97d6dcb0cff85acd0eabdd23b939f8cc1cc1ca0595aca9135b1243b9b846f8440180a08c428053dca2aea9a2b9bc459663b9a6aaf5628296a02ca15ccca761569d173da007d66a4e1d89094cab8479602a51082c45b332b0ce73399843d3030a905cb055
   ["0x34e229de97d6dcb0cff85acd0eabdd23b939f8cc1cc1ca0595aca9135b1243b9","0xf8440180a08c428053dca2aea9a2b9bc459663b9a6aaf5628296a02ca15ccca761569d173da007d66a4e1d89094cab8479602a51082c45b332b0ce73399843d3030a905cb055"]
   - 4e229de97d6dcb0cff85acd0eabdd23b939f8cc1cc1ca0595aca9135b1243b9 : f8440180a08c428053dca2aea9a2b9bc459663b9a6aaf5628296a02ca15ccca761569d173da007d66a4e1d89094cab8479602a51082c45b332b0ce73399843d3030a905cb055
     ["0x01","0x","0x8c428053dca2aea9a2b9bc459663b9a6aaf5628296a02ca15ccca761569d173d","0x07d66a4e1d89094cab8479602a51082c45b332b0ce73399843d3030a905cb055"]
     (Nonce, Balance, StorageHash, CodeHash)
     (1, 0, StorageHash,63{CodeHash})
     => StorageHash: f85180808080a0e0056dc8ba66f8d0ce2ea7e213d58de0584308aa1c11e194a677e8ec427ef659808080808080808080a0847262ebf18af9824a9bb7037c3e5912864d6d9790cb79b04ee8fe8330b9ea9c8080
        ["0x","0x","0x","0x","0xe0056dc8ba66f8d0ce2ea7e213d58de0584308aa1c11e194a677e8ec427ef659","0x","0x","0x","0x","0x","0x","0x","0x","0x","0x847262ebf18af9824a9bb7037c3e5912864d6d9790cb79b04ee8fe8330b9ea9c","0x","0x"]
          4 - e0056dc8ba66f8d0ce2ea7e213d58de0584308aa1c11e194a677e8ec427ef659 : e5a03c81d6050317dd8dc89fd9c22575104536564c5a6dae6e0bd8e4b4424f3f6084838203e8
          ["0x3c81d6050317dd8dc89fd9c22575104536564c5a6dae6e0bd8e4b4424f3f6084","0x8203e8"]  // [?, 1000]
          e - 847262ebf18af9824a9bb7037c3e5912864d6d9790cb79b04ee8fe8330b9ea9c : e5a033540e6242270704338b7fe85d1cd55f25c3cda9d49bcc86da3da724a0356bb583822328
          ["0x33540e6242270704338b7fe85d1cd55f25c3cda9d49bcc86da3da724a0356bb5","0x822328"] // [?, 9000]
 - 6: e60387928816ad169a894ff5834ee9d13baf174ce385816e408741a146596670 : f872a035eca67d2c0211b30a217d6eb1c4804baeb869b5f75902493a5607c98ed42c61b84ff84d0289366d4c88947c300000a056e81f171bcc55a6ff8345e692c0f86e5b48e01b996cadc001622fb5e363b421a0c5d2460186f7233c927e7db2dcc703c0e500b653ca82273b7bfad8045d85a470
   ["0x35eca67d2c0211b30a217d6eb1c4804baeb869b5f75902493a5607c98ed42c61","0xf84d0289366d4c88947c300000a056e81f171bcc55a6ff8345e692c0f86e5b48e01b996cadc001622fb5e363b421a0c5d2460186f7233c927e7db2dcc703c0e500b653ca82273b7bfad8045d85a470"]
   - 5eca67d2c0211b30a217d6eb1c4804baeb869b5f75902493a5607c98ed42c61 : f84d0289366d4c88947c300000a056e81f171bcc55a6ff8345e692c0f86e5b48e01b996cadc001622fb5e363b421a0c5d2460186f7233c927e7db2dcc703c0e500b653ca82273b7bfad8045d85a470
     ["0x02","0x366d4c88947c300000","0x56e81f171bcc55a6ff8345e692c0f86e5b48e01b996cadc001622fb5e363b421","0xc5d2460186f7233c927e7db2dcc703c0e500b653ca82273b7bfad8045d85a470"]
     (Nonce, Balance, StorageHash, CodeHash)
     (2, 1004ETH, nil, "")


// TransactionRoot  : "0x0f459ff05c5514df7d1d548747c471142bbcac848a3a00d412fddd3b291a9ffd",
// ReceiptsRoot     : "0x839a741b01f5774251c5150d7e2061acf05fac2a8fa63a0f7e55ec44ba5f111c",