> eth.getBlock(0)
{
  baseFeePerGas: 1000000000,
  difficulty: 131072,
  extraData: "0x",
  gasLimit: 29970705,
  gasUsed: 0,
  hash: "0xf2d072ff5a78ba237a0335f63e8fbb201f858709f06a166cf9fc135aa6a4fa3a",
  logsBloom: "0x00000000000000000000000000000000000000000000000000000000000000000000000000000000000000000000000000000000000000000000000000000000000000000000000000000000000000000000000000000000000000000000000000000000000000000000000000000000000000000000000000000000000000000000000000000000000000000000000000000000000000000000000000000000000000000000000000000000000000000000000000000000000000000000000000000000000000000000000000000000000000000000000000000000000000000000000000000000000000000000000000000000000000000000000000000000",
  miner: "0x0000000000000000000000000000000000000000",
  mixHash: "0x0000000000000000000000000000000000000000000000000000000000000000",
  nonce: "0x0000000000000000",
  number: 0,
  parentHash: "0x0000000000000000000000000000000000000000000000000000000000000000",
  receiptsRoot: "0x56e81f171bcc55a6ff8345e692c0f86e5b48e01b996cadc001622fb5e363b421",
  sha3Uncles: "0x1dcc4de8dec75d7aab85b567b6ccd41ad312451b948a7413f0a142fd40d49347",
  size: 513,
  stateRoot: "0xadcbc6bbe9eac0f0c2b16f36f7359b941d901bb121bc245d292c20cf99fa5857",
  timestamp: 0,
  totalDifficulty: 131072,
  transactions: [],
  transactionsRoot: "0x56e81f171bcc55a6ff8345e692c0f86e5b48e01b996cadc001622fb5e363b421",
  uncles: []
}

[
  '446174616261736556657273696f6e : 08',
  '48f2d072ff5a78ba237a0335f63e8fbb201f858709f06a166cf9fc135aa6a4fa3a : 0000000000000000',
  '4c617374426c6f636b : f2d072ff5a78ba237a0335f63e8fbb201f858709f06a166cf9fc135aa6a4fa3a',
  '4c61737446617374 : f2d072ff5a78ba237a0335f63e8fbb201f858709f06a166cf9fc135aa6a4fa3a',
  '4c617374486561646572 : f2d072ff5a78ba237a0335f63e8fbb201f858709f06a166cf9fc135aa6a4fa3a',
  '536e617073686f7447656e657261746f72 : c6800180808080',
  '536e617073686f744a6f75726e616c : 80a0adcbc6bbe9eac0f0c2b16f36f7359b941d901bb121bc245d292c20cf99fa5857',
  '536e617073686f74526f6f74 : adcbc6bbe9eac0f0c2b16f36f7359b941d901bb121bc245d292c20cf99fa5857',
  '6165eca67d2c0211b30a217d6eb1c4804baeb869b5f75902493a5607c98ed42c61 : cd80893635c9adc5dea000008080',
  '620000000000000000f2d072ff5a78ba237a0335f63e8fbb201f858709f06a166cf9fc135aa6a4fa3a : c2c0c0',
  '657468657265756d2d636f6e6669672df2d072ff5a78ba237a0335f63e8fbb201f858709f06a166cf9fc135aa6a4fa3a : 7b22636861696e4964223a343639332c22686f6d657374656164426c6f636b223a302c22656970313530426c6f636b223a302c2265697031353048617368223a22307830303030303030303030303030303030303030303030303030303030303030303030303030303030303030303030303030303030303030303030303030303030222c22656970313535426c6f636b223a302c22656970313538426c6f636b223a302c2262797a616e7469756d426c6f636b223a302c22636f6e7374616e74696e6f706c65426c6f636b223a302c2270657465727362757267426c6f636b223a302c22697374616e62756c426c6f636b223a302c226d756972476c6163696572426c6f636b223a302c226265726c696e426c6f636b223a302c226c6f6e646f6e426c6f636b223a302c226172726f77476c6163696572426c6f636b223a302c22657468617368223a7b7d7d',
  '657468657265756d2d67656e657369732df2d072ff5a78ba237a0335f63e8fbb201f858709f06a166cf9fc135aa6a4fa3a : 7b22307839343266333937623766343339316234333131353339356634363963363330373261656436653431223a7b2262616c616e6365223a223078333633356339616463356465613030303030227d7d',
  '6800000000000000006e : f2d072ff5a78ba237a0335f63e8fbb201f858709f06a166cf9fc135aa6a4fa3a',
  '680000000000000000f2d072ff5a78ba237a0335f63e8fbb201f858709f06a166cf9fc135aa6a4fa3a : f901f9a00000000000000000000000000000000000000000000000000000000000000000a01dcc4de8dec75d7aab85b567b6ccd41ad312451b948a7413f0a142fd40d49347940000000000000000000000000000000000000000a0adcbc6bbe9eac0f0c2b16f36f7359b941d901bb121bc245d292c20cf99fa5857a056e81f171bcc55a6ff8345e692c0f86e5b48e01b996cadc001622fb5e363b421a056e81f171bcc55a6ff8345e692c0f86e5b48e01b996cadc001622fb5e363b421b901000000000000000000000000000000000000000000000000000000000000000000000000000000000000000000000000000000000000000000000000000000000000000000000000000000000000000000000000000000000000000000000000000000000000000000000000000000000000000000000000000000000000000000000000000000000000000000000000000000000000000000000000000000000000000000000000000000000000000000000000000000000000000000000000000000000000000000000000000000000000000000000000000000000000000000000000000000000000000000000000000000000000000000000000000000000083020000808401c95111808080a00000000000000000000000000000000000000000000000000000000000000000880000000000000000843b9aca00',
  '680000000000000000f2d072ff5a78ba237a0335f63e8fbb201f858709f06a166cf9fc135aa6a4fa3a74 : 83020000',
  '720000000000000000f2d072ff5a78ba237a0335f63e8fbb201f858709f06a166cf9fc135aa6a4fa3a : c0',
  '7365637572652d6b65792d65eca67d2c0211b30a217d6eb1c4804baeb869b5f75902493a5607c98ed42c61 : 942f397b7f4391b43115395f469c63072aed6e41',
  '756e636c65616e2d73687574646f776e : c280c0',
  'adcbc6bbe9eac0f0c2b16f36f7359b941d901bb121bc245d292c20cf99fa5857 : f873a12065eca67d2c0211b30a217d6eb1c4804baeb869b5f75902493a5607c98ed42c61b84ff84d80893635c9adc5dea00000a056e81f171bcc55a6ff8345e692c0f86e5b48e01b996cadc001622fb5e363b421a0c5d2460186f7233c927e7db2dcc703c0e500b653ca82273b7bfad8045d85a470'
]