> eth.getBlock(2)
{
  baseFeePerGas: 768784213,
  difficulty: 131072,
  extraData: "0xd883010a12846765746888676f312e31382e31856c696e7578",
  gasLimit: 30000000,
  gasUsed: 52246,
  hash: "0xb3ee2315e2e9e485585fbe32c14a4ddfeedfc7efb6146c985df9560428092720",
  logsBloom: "0x00000000004000000000000000000000000000000000000000000000000000000000000001000000000000000000000000000000000000000000000000000000000000000000000000000008000000040000000000000000000000000000000000010004000000000000040000000000000000000000000000000010000000000000000000000000000800000000000000000000000000000000000000000000000000000000000000000000000000000000000000000000000000000000000000000002400000000000200000000000000000000000000000000000000000000000000000000000000000000000000000000000000000000000000000000000",
  miner: "0x942f397b7f4391b43115395f469c63072aed6e41",
  mixHash: "0x55cc68f242b016b92e5aab1e7c7c42e2c250db909653b622df75be041ed295c5",
  nonce: "0x3d393efbabd077af",
  number: 2,
  parentHash: "0x01cfe23f93f3a4565b87420ba6e8fcf8775a93d8de3859bd90c639c29f970cb0",
  receiptsRoot: "0xc7556b51d1469293a9817d70ace9697dc4553730e3185a956254e12ee5f4c432",
  sha3Uncles: "0x1dcc4de8dec75d7aab85b567b6ccd41ad312451b948a7413f0a142fd40d49347",
  size: 719,
  stateRoot: "0x3ff60490db4a2e3f38eb00baef090f27ddb63d1b9e0365e1a5bc2d7e27c15939",
  timestamp: 1651958474,
  totalDifficulty: 393216,
  transactions: ["0xaf1ad2f6b02595cfcf8fdbb78e69be2f15e762c915dcf708fdfe3d1f02c80848"],
  transactionsRoot: "0x0f459ff05c5514df7d1d548747c471142bbcac848a3a00d412fddd3b291a9ffd",
  uncles: []
}

[
  '3ff60490db4a2e3f38eb00baef090f27ddb63d1b9e0365e1a5bc2d7e27c15939 : f85180808080a0c019d4986e97099f1b1b21ca68ce3091b4b767d234a6f72776b5ce537814268f80a0d874a89c3fa7b6a983ae6c750fdffd5923f8c6b48ed88a003b969f3146d2dfc380808080808080808080',
  '42f3897aa7b33b559f25ae11379de6ab912298d299a775e1b927b002dd4d618e : f85180808080a0d5fadd65493e263392ee3bc20eab3b5ac90ec85ae25e9549cc9bae097e512c9280a0755a4e98b100684a9667d20ba5012e781fadcde9bb1e26c0b0aacabb8d8f946980808080808080808080',
  '446174616261736556657273696f6e : 08',
  '4801cfe23f93f3a4565b87420ba6e8fcf8775a93d8de3859bd90c639c29f970cb0 : 0000000000000001',
  '48b3ee2315e2e9e485585fbe32c14a4ddfeedfc7efb6146c985df9560428092720 : 0000000000000002',
  '48f2d072ff5a78ba237a0335f63e8fbb201f858709f06a166cf9fc135aa6a4fa3a : 0000000000000000',
  '4c617374426c6f636b : b3ee2315e2e9e485585fbe32c14a4ddfeedfc7efb6146c985df9560428092720',
  '4c61737446617374 : b3ee2315e2e9e485585fbe32c14a4ddfeedfc7efb6146c985df9560428092720',
  '4c617374486561646572 : b3ee2315e2e9e485585fbe32c14a4ddfeedfc7efb6146c985df9560428092720',
  '536e617073686f7447656e657261746f72 : c6800180808080',
  '536e617073686f744a6f75726e616c : 80a0adcbc6bbe9eac0f0c2b16f36f7359b941d901bb121bc245d292c20cf99fa5857a042f3897aa7b33b559f25ae11379de6ab912298d299a775e1b927b002dd4d618ec0f89cf0a065eca67d2c0211b30a217d6eb1c4804baeb869b5f75902493a5607c98ed42c618ecd0189365189c261e3191cc08080f869a044e229de97d6dcb0cff85acd0eabdd23b939f8cc1cc1ca0595aca9135b1243b9b846f8440180a064463b608bf4aec320f424e007ed9f9a6fbe04dbaacc8c18f60e27fb3a16a6d1a007d66a4e1d89094cab8479602a51082c45b332b0ce73399843d3030a905cb055f84af848a044e229de97d6dcb0cff85acd0eabdd23b939f8cc1cc1ca0595aca9135b1243b9e1a0e3540e6242270704338b7fe85d1cd55f25c3cda9d49bcc86da3da724a0356bb5c483822710a03ff60490db4a2e3f38eb00baef090f27ddb63d1b9e0365e1a5bc2d7e27c15939c0f89cf869a044e229de97d6dcb0cff85acd0eabdd23b939f8cc1cc1ca0595aca9135b1243b9b846f8440180a08c428053dca2aea9a2b9bc459663b9a6aaf5628296a02ca15ccca761569d173da007d66a4e1d89094cab8479602a51082c45b332b0ce73399843d3030a905cb055f0a065eca67d2c0211b30a217d6eb1c4804baeb869b5f75902493a5607c98ed42c618ecd0289366d4b0b4157ad9f728080f870f86ea044e229de97d6dcb0cff85acd0eabdd23b939f8cc1cc1ca0595aca9135b1243b9f842a0e3540e6242270704338b7fe85d1cd55f25c3cda9d49bcc86da3da724a0356bb5a04c81d6050317dd8dc89fd9c22575104536564c5a6dae6e0bd8e4b4424f3f6084c883822328838203e8',
  '536e617073686f74526f6f74 : adcbc6bbe9eac0f0c2b16f36f7359b941d901bb121bc245d292c20cf99fa5857',
  '5472616e73616374696f6e496e6465785461696c : 0000000000000000',
  '6165eca67d2c0211b30a217d6eb1c4804baeb869b5f75902493a5607c98ed42c61 : cd80893635c9adc5dea000008080',
  '620000000000000000f2d072ff5a78ba237a0335f63e8fbb201f858709f06a166cf9fc135aa6a4fa3a : c2c0c0',
  '62000000000000000101cfe23f93f3a4565b87420ba6e8fcf8775a93d8de3859bd90c639c29f970cb0 : f9073df90739f90736808506fc23ac0083069c6f8080b906e1608060405234801561001057600080fd5b506127106000803373ffffffffffffffffffffffffffffffffffffffff1673ffffffffffffffffffffffffffffffffffffffff1681526020019081526020016000208190555061067c806100656000396000f3fe608060405234801561001057600080fd5b50600436106100365760003560e01c806370a082311461003b578063a9059cbb1461006b575b600080fd5b61005560048036038101906100509190610355565b61009b565b604051610062919061039b565b60405180910390f35b610085600480360381019061008091906103e2565b6100e3565b604051610092919061043d565b60405180910390f35b60008060008373ffffffffffffffffffffffffffffffffffffffff1673ffffffffffffffffffffffffffffffffffffffff168152602001908152602001600020549050919050565b60008073ffffffffffffffffffffffffffffffffffffffff168373ffffffffffffffffffffffffffffffffffffffff1603610153576040517f08c379a000000000000000000000000000000000000000000000000000000000815260040161014a906104db565b60405180910390fd5b600033905060008060008373ffffffffffffffffffffffffffffffffffffffff1673ffffffffffffffffffffffffffffffffffffffff168152602001908152602001600020549050838110156101de576040517f08c379a00000000000000000000000000000000000000000000000000000000081526004016101d59061056d565b60405180910390fd5b83816101ea91906105bc565b6000808473ffffffffffffffffffffffffffffffffffffffff1673ffffffffffffffffffffffffffffffffffffffff16815260200190815260200160002081905550836000808773ffffffffffffffffffffffffffffffffffffffff1673ffffffffffffffffffffffffffffffffffffffff168152602001908152602001600020600082825461027a91906105f0565b925050819055508473ffffffffffffffffffffffffffffffffffffffff168273ffffffffffffffffffffffffffffffffffffffff167fddf252ad1be2c89b69c2b068fc378daa952ba7f163c4a11628f55a4df523b3ef866040516102de919061039b565b60405180910390a360019250505092915050565b600080fd5b600073ffffffffffffffffffffffffffffffffffffffff82169050919050565b6000610322826102f7565b9050919050565b61033281610317565b811461033d57600080fd5b50565b60008135905061034f81610329565b92915050565b60006020828403121561036b5761036a6102f2565b5b600061037984828501610340565b91505092915050565b6000819050919050565b61039581610382565b82525050565b60006020820190506103b0600083018461038c565b92915050565b6103bf81610382565b81146103ca57600080fd5b50565b6000813590506103dc816103b6565b92915050565b600080604083850312156103f9576103f86102f2565b5b600061040785828601610340565b9250506020610418858286016103cd565b9150509250929050565b60008115159050919050565b61043781610422565b82525050565b6000602082019050610452600083018461042e565b92915050565b600082825260208201905092915050565b7f45524332303a207472616e7366657220746f20746865207a65726f206164647260008201527f6573730000000000000000000000000000000000000000000000000000000000602082015250565b60006104c5602383610458565b91506104d082610469565b604082019050919050565b600060208201905081810360008301526104f4816104b8565b9050919050565b7f45524332303a207472616e7366657220616d6f756e742065786365656473206260008201527f616c616e63650000000000000000000000000000000000000000000000000000602082015250565b6000610557602683610458565b9150610562826104fb565b604082019050919050565b600060208201905081810360008301526105868161054a565b9050919050565b7f4e487b7100000000000000000000000000000000000000000000000000000000600052601160045260246000fd5b60006105c782610382565b91506105d283610382565b9250828210156105e5576105e461058d565b5b828203905092915050565b60006105fb82610382565b915061060683610382565b9250827fffffffffffffffffffffffffffffffffffffffffffffffffffffffffffffffff0382111561063b5761063a61058d565b5b82820190509291505056fea2646970667358221220a1d5cf32f5a4750bfedb554f14e17971a4b56b2272dd29d702bc4a408c0c930064736f6c634300080d00338224cda09b41db8e07c6ebc15ef1e14fbeb8be1e2d50a79d6a81ea25ec288da7a79bf2c3a0170aff157a657eef4772f31d61b0f4c8d1871290cdedb141d4fa6150adb1d808c0',
  '620000000000000002b3ee2315e2e9e485585fbe32c14a4ddfeedfc7efb6146c985df9560428092720 : f8b1f8aef8ac018506fc23ac00830f42409460e69b73db38d52c70690a8efcee30383190cdfa80b844a9059cbb000000000000000000000000911d6b77014fa58afd85be49e5148cbeaa3fee3900000000000000000000000000000000000000000000000000000000000003e88224cea09ff91eee11bcf2951d984e9449236f151725f6367b5b12480d6ebaeee69c5b23a07fd5715dc431cccabbd508cc849c875ced617749880ba8251325a38763fd814ac0',
  '6307d66a4e1d89094cab8479602a51082c45b332b0ce73399843d3030a905cb055 : 608060405234801561001057600080fd5b50600436106100365760003560e01c806370a082311461003b578063a9059cbb1461006b575b600080fd5b61005560048036038101906100509190610355565b61009b565b604051610062919061039b565b60405180910390f35b610085600480360381019061008091906103e2565b6100e3565b604051610092919061043d565b60405180910390f35b60008060008373ffffffffffffffffffffffffffffffffffffffff1673ffffffffffffffffffffffffffffffffffffffff168152602001908152602001600020549050919050565b60008073ffffffffffffffffffffffffffffffffffffffff168373ffffffffffffffffffffffffffffffffffffffff1603610153576040517f08c379a000000000000000000000000000000000000000000000000000000000815260040161014a906104db565b60405180910390fd5b600033905060008060008373ffffffffffffffffffffffffffffffffffffffff1673ffffffffffffffffffffffffffffffffffffffff168152602001908152602001600020549050838110156101de576040517f08c379a00000000000000000000000000000000000000000000000000000000081526004016101d59061056d565b60405180910390fd5b83816101ea91906105bc565b6000808473ffffffffffffffffffffffffffffffffffffffff1673ffffffffffffffffffffffffffffffffffffffff16815260200190815260200160002081905550836000808773ffffffffffffffffffffffffffffffffffffffff1673ffffffffffffffffffffffffffffffffffffffff168152602001908152602001600020600082825461027a91906105f0565b925050819055508473ffffffffffffffffffffffffffffffffffffffff168273ffffffffffffffffffffffffffffffffffffffff167fddf252ad1be2c89b69c2b068fc378daa952ba7f163c4a11628f55a4df523b3ef866040516102de919061039b565b60405180910390a360019250505092915050565b600080fd5b600073ffffffffffffffffffffffffffffffffffffffff82169050919050565b6000610322826102f7565b9050919050565b61033281610317565b811461033d57600080fd5b50565b60008135905061034f81610329565b92915050565b60006020828403121561036b5761036a6102f2565b5b600061037984828501610340565b91505092915050565b6000819050919050565b61039581610382565b82525050565b60006020820190506103b0600083018461038c565b92915050565b6103bf81610382565b81146103ca57600080fd5b50565b6000813590506103dc816103b6565b92915050565b600080604083850312156103f9576103f86102f2565b5b600061040785828601610340565b9250506020610418858286016103cd565b9150509250929050565b60008115159050919050565b61043781610422565b82525050565b6000602082019050610452600083018461042e565b92915050565b600082825260208201905092915050565b7f45524332303a207472616e7366657220746f20746865207a65726f206164647260008201527f6573730000000000000000000000000000000000000000000000000000000000602082015250565b60006104c5602383610458565b91506104d082610469565b604082019050919050565b600060208201905081810360008301526104f4816104b8565b9050919050565b7f45524332303a207472616e7366657220616d6f756e742065786365656473206260008201527f616c616e63650000000000000000000000000000000000000000000000000000602082015250565b6000610557602683610458565b9150610562826104fb565b604082019050919050565b600060208201905081810360008301526105868161054a565b9050919050565b7f4e487b7100000000000000000000000000000000000000000000000000000000600052601160045260246000fd5b60006105c782610382565b91506105d283610382565b9250828210156105e5576105e461058d565b5b828203905092915050565b60006105fb82610382565b915061060683610382565b9250827fffffffffffffffffffffffffffffffffffffffffffffffffffffffffffffffff0382111561063b5761063a61058d565b5b82820190509291505056fea2646970667358221220a1d5cf32f5a4750bfedb554f14e17971a4b56b2272dd29d702bc4a408c0c930064736f6c634300080d0033',
  '64463b608bf4aec320f424e007ed9f9a6fbe04dbaacc8c18f60e27fb3a16a6d1 : e6a120e3540e6242270704338b7fe85d1cd55f25c3cda9d49bcc86da3da724a0356bb583822710',
  '657468657265756d2d636f6e6669672df2d072ff5a78ba237a0335f63e8fbb201f858709f06a166cf9fc135aa6a4fa3a : 7b22636861696e4964223a343639332c22686f6d657374656164426c6f636b223a302c22656970313530426c6f636b223a302c2265697031353048617368223a22307830303030303030303030303030303030303030303030303030303030303030303030303030303030303030303030303030303030303030303030303030303030222c22656970313535426c6f636b223a302c22656970313538426c6f636b223a302c2262797a616e7469756d426c6f636b223a302c22636f6e7374616e74696e6f706c65426c6f636b223a302c2270657465727362757267426c6f636b223a302c22697374616e62756c426c6f636b223a302c226d756972476c6163696572426c6f636b223a302c226265726c696e426c6f636b223a302c226c6f6e646f6e426c6f636b223a302c226172726f77476c6163696572426c6f636b223a302c22657468617368223a7b7d7d',
  '657468657265756d2d67656e657369732df2d072ff5a78ba237a0335f63e8fbb201f858709f06a166cf9fc135aa6a4fa3a : 7b22307839343266333937623766343339316234333131353339356634363963363330373261656436653431223a7b2262616c616e6365223a223078333633356339616463356465613030303030227d7d',
  '6800000000000000006e : f2d072ff5a78ba237a0335f63e8fbb201f858709f06a166cf9fc135aa6a4fa3a',
  '680000000000000000f2d072ff5a78ba237a0335f63e8fbb201f858709f06a166cf9fc135aa6a4fa3a : f901f9a00000000000000000000000000000000000000000000000000000000000000000a01dcc4de8dec75d7aab85b567b6ccd41ad312451b948a7413f0a142fd40d49347940000000000000000000000000000000000000000a0adcbc6bbe9eac0f0c2b16f36f7359b941d901bb121bc245d292c20cf99fa5857a056e81f171bcc55a6ff8345e692c0f86e5b48e01b996cadc001622fb5e363b421a056e81f171bcc55a6ff8345e692c0f86e5b48e01b996cadc001622fb5e363b421b901000000000000000000000000000000000000000000000000000000000000000000000000000000000000000000000000000000000000000000000000000000000000000000000000000000000000000000000000000000000000000000000000000000000000000000000000000000000000000000000000000000000000000000000000000000000000000000000000000000000000000000000000000000000000000000000000000000000000000000000000000000000000000000000000000000000000000000000000000000000000000000000000000000000000000000000000000000000000000000000000000000000000000000000000000000000083020000808401c95111808080a00000000000000000000000000000000000000000000000000000000000000000880000000000000000843b9aca00',
  '680000000000000000f2d072ff5a78ba237a0335f63e8fbb201f858709f06a166cf9fc135aa6a4fa3a74 : 83020000',
  '68000000000000000101cfe23f93f3a4565b87420ba6e8fcf8775a93d8de3859bd90c639c29f970cb0 : f90219a0f2d072ff5a78ba237a0335f63e8fbb201f858709f06a166cf9fc135aa6a4fa3aa01dcc4de8dec75d7aab85b567b6ccd41ad312451b948a7413f0a142fd40d4934794942f397b7f4391b43115395f469c63072aed6e41a042f3897aa7b33b559f25ae11379de6ab912298d299a775e1b927b002dd4d618ea0cbe0c053ab4aaed93dc6d4ae49e61f3af64d39bb2bf7ad2d5379a20089b88e50a066180d17da5eed360d856a0240aa19f0c40039eccce4045cdeb11ef45f9439c1b901000000000000000000000000000000000000000000000000000000000000000000000000000000000000000000000000000000000000000000000000000000000000000000000000000000000000000000000000000000000000000000000000000000000000000000000000000000000000000000000000000000000000000000000000000000000000000000000000000000000000000000000000000000000000000000000000000000000000000000000000000000000000000000000000000000000000000000000000000000000000000000000000000000000000000000000000000000000000000000000000000000000000000000000000000000000083020000018401c9c36483069c6f846276e18e99d883010a12846765746888676f312e31382e31856c696e7578a01993d0dc377846b11a57452960cfdfa86245106aeb577e268521267344c732fe88252055a45da53ade84342770c0',
  '68000000000000000101cfe23f93f3a4565b87420ba6e8fcf8775a93d8de3859bd90c639c29f970cb074 : 83040000',
  '6800000000000000016e : 01cfe23f93f3a4565b87420ba6e8fcf8775a93d8de3859bd90c639c29f970cb0',
  '6800000000000000026e : b3ee2315e2e9e485585fbe32c14a4ddfeedfc7efb6146c985df9560428092720',
  '680000000000000002b3ee2315e2e9e485585fbe32c14a4ddfeedfc7efb6146c985df9560428092720 : f90218a001cfe23f93f3a4565b87420ba6e8fcf8775a93d8de3859bd90c639c29f970cb0a01dcc4de8dec75d7aab85b567b6ccd41ad312451b948a7413f0a142fd40d4934794942f397b7f4391b43115395f469c63072aed6e41a03ff60490db4a2e3f38eb00baef090f27ddb63d1b9e0365e1a5bc2d7e27c15939a00f459ff05c5514df7d1d548747c471142bbcac848a3a00d412fddd3b291a9ffda0c7556b51d1469293a9817d70ace9697dc4553730e3185a956254e12ee5f4c432b901000000000000400000000000000000000000000000000000000000000000000000000000000100000000000000000000000000000000000000000000000000000000000000000000000000000800000004000000000000000000000000000000000001000400000000000004000000000000000000000000000000001000000000000000000000000000080000000000000000000000000000000000000000000000000000000000000000000000000000000000000000000000000000000000000000000240000000000020000000000000000000000000000000000000000000000000000000000000000000000000000000000000000000000000000000000083020000028401c9c38082cc16846276e2ca99d883010a12846765746888676f312e31382e31856c696e7578a055cc68f242b016b92e5aab1e7c7c42e2c250db909653b622df75be041ed295c5883d393efbabd077af842dd2b755',
  '680000000000000002b3ee2315e2e9e485585fbe32c14a4ddfeedfc7efb6146c985df956042809272074 : 83060000',
  '6c1db48c64ff65f20f085d9b127f2a5c081ea2735ba43aba9ad2b076d994cc50d5 : 01',
  '6caf1ad2f6b02595cfcf8fdbb78e69be2f15e762c915dcf708fdfe3d1f02c80848 : 02',
  '720000000000000000f2d072ff5a78ba237a0335f63e8fbb201f858709f06a166cf9fc135aa6a4fa3a : c0',
  '72000000000000000101cfe23f93f3a4565b87420ba6e8fcf8775a93d8de3859bd90c639c29f970cb0 : c7c60183069c6fc0',
  '720000000000000002b3ee2315e2e9e485585fbe32c14a4ddfeedfc7efb6146c985df9560428092720 : f8a5f8a30182cc16f89df89b9460e69b73db38d52c70690a8efcee30383190cdfaf863a0ddf252ad1be2c89b69c2b068fc378daa952ba7f163c4a11628f55a4df523b3efa0000000000000000000000000942f397b7f4391b43115395f469c63072aed6e41a0000000000000000000000000911d6b77014fa58afd85be49e5148cbeaa3fee39a000000000000000000000000000000000000000000000000000000000000003e8',
  '7365637572652d6b65792d65eca67d2c0211b30a217d6eb1c4804baeb869b5f75902493a5607c98ed42c61 : 942f397b7f4391b43115395f469c63072aed6e41',
  '755a4e98b100684a9667d20ba5012e781fadcde9bb1e26c0b0aacabb8d8f9469 : f872a035eca67d2c0211b30a217d6eb1c4804baeb869b5f75902493a5607c98ed42c61b84ff84d0189365189c261e3191cc0a056e81f171bcc55a6ff8345e692c0f86e5b48e01b996cadc001622fb5e363b421a0c5d2460186f7233c927e7db2dcc703c0e500b653ca82273b7bfad8045d85a470',
  '756e636c65616e2d73687574646f776e : c280c0',
  '847262ebf18af9824a9bb7037c3e5912864d6d9790cb79b04ee8fe8330b9ea9c : e5a033540e6242270704338b7fe85d1cd55f25c3cda9d49bcc86da3da724a0356bb583822328',
  '8c428053dca2aea9a2b9bc459663b9a6aaf5628296a02ca15ccca761569d173d : f85180808080a0e0056dc8ba66f8d0ce2ea7e213d58de0584308aa1c11e194a677e8ec427ef659808080808080808080a0847262ebf18af9824a9bb7037c3e5912864d6d9790cb79b04ee8fe8330b9ea9c8080',
  'adcbc6bbe9eac0f0c2b16f36f7359b941d901bb121bc245d292c20cf99fa5857 : f873a12065eca67d2c0211b30a217d6eb1c4804baeb869b5f75902493a5607c98ed42c61b84ff84d80893635c9adc5dea00000a056e81f171bcc55a6ff8345e692c0f86e5b48e01b996cadc001622fb5e363b421a0c5d2460186f7233c927e7db2dcc703c0e500b653ca82273b7bfad8045d85a470',
  'c019d4986e97099f1b1b21ca68ce3091b4b767d234a6f72776b5ce537814268f : f869a034e229de97d6dcb0cff85acd0eabdd23b939f8cc1cc1ca0595aca9135b1243b9b846f8440180a08c428053dca2aea9a2b9bc459663b9a6aaf5628296a02ca15ccca761569d173da007d66a4e1d89094cab8479602a51082c45b332b0ce73399843d3030a905cb055',
  'd5fadd65493e263392ee3bc20eab3b5ac90ec85ae25e9549cc9bae097e512c92 : f869a034e229de97d6dcb0cff85acd0eabdd23b939f8cc1cc1ca0595aca9135b1243b9b846f8440180a064463b608bf4aec320f424e007ed9f9a6fbe04dbaacc8c18f60e27fb3a16a6d1a007d66a4e1d89094cab8479602a51082c45b332b0ce73399843d3030a905cb055',
  'd874a89c3fa7b6a983ae6c750fdffd5923f8c6b48ed88a003b969f3146d2dfc3 : f872a035eca67d2c0211b30a217d6eb1c4804baeb869b5f75902493a5607c98ed42c61b84ff84d0289366d4b0b4157ad9f72a056e81f171bcc55a6ff8345e692c0f86e5b48e01b996cadc001622fb5e363b421a0c5d2460186f7233c927e7db2dcc703c0e500b653ca82273b7bfad8045d85a470',
  'e0056dc8ba66f8d0ce2ea7e213d58de0584308aa1c11e194a677e8ec427ef659 : e5a03c81d6050317dd8dc89fd9c22575104536564c5a6dae6e0bd8e4b4424f3f6084838203e8'
]