=========================
==== Type 2 EIP-1559 ====
=========================

>> Prepare Sign
txItems: 0x1255,3,0x9502f900,0x06fc23ac00,0x0f4240,0x60e69b73db38d52c70690a8efcee30383190cdfa,0x,0xa9059cbb00000000000000000000000006b90a7d72e2988ba2711d22e91eb324686104a10000000000000000000000000000000000000000000000000000000000000bb8,
txRlp: 0xf87082125503849502f9008506fc23ac00830f42409460e69b73db38d52c70690a8efcee30383190cdfa80b844a9059cbb00000000000000000000000006b90a7d72e2988ba2711d22e91eb324686104a10000000000000000000000000000000000000000000000000000000000000bb8c0
txHash: 0x02985cd10a35009c2d7282dc0cb413c8eb1cae09267309b8eb52a28fe12638c9

>> Sign(ECDSA)
recId: 1
signatureYParity: 0x1
signatureR: 0xa3f8c9bcb37fde6aec7bd8bc35f59e619f722f4bb1e323c3ff6c3820b502ba23
signatureS: 0x36e2458f7b52df560d437ff07e75d05e42136086a909ea2075562c1a77007a59
>> Signed Transaction
signedTxItems: 0x1255,3,0x9502f900,0x06fc23ac00,0x0f4240,0x60e69b73db38d52c70690a8efcee30383190cdfa,0x,0xa9059cbb00000000000000000000000006b90a7d72e2988ba2711d22e91eb324686104a10000000000000000000000000000000000000000000000000000000000000bb8,,0x1,0xa3f8c9bcb37fde6aec7bd8bc35f59e619f722f4bb1e323c3ff6c3820b502ba23,0x36e2458f7b52df560d437ff07e75d05e42136086a909ea2075562c1a77007a59
signedTxRlp:
0xf8b382125503849502f9008506fc23ac00830f42409460e69b73db38d52c70690a8efcee30383190cdfa80b844a9059cbb00000000000000000000000006b90a7d72e2988ba2711d22e91eb324686104a10000000000000000000000000000000000000000000000000000000000000bb8c001a0a3f8c9bcb37fde6aec7bd8bc35f59e619f722f4bb1e323c3ff6c3820b502ba23a036e2458f7b52df560d437ff07e75d05e42136086a909ea2075562c1a77007a59
signedTx : 0x02f8b382125503849502f9008506fc23ac00830f42409460e69b73db38d52c70690a8efcee30383190cdfa80b844a9059cbb00000000000000000000000006b90a7d72e2988ba2711d22e91eb324686104a10000000000000000000000000000000000000000000000000000000000000bb8c001a0a3f8c9bcb37fde6aec7bd8bc35f59e619f722f4bb1e323c3ff6c3820b502ba23a036e2458f7b52df560d437ff07e75d05e42136086a909ea2075562c1a77007a59
signedTxHash : 0xa7aa82999d4b8da857fadb8f3f18a3e1b4de0e0cbac2071bbb86993c71df1235

>> Send Transaction
{
  blockHash: '0x755b635be66b356cfd8a94fe71fcfc71889dc28e590d24066e5bafc2314ad806',
  blockNumber: 3,
  contractAddress: null,
  cumulativeGasUsed: 104480,
  effectiveGasPrice: 3173020903,
  from: '0x942f397b7f4391b43115395f469c63072aed6e41',
  gasUsed: 52246,
  logs: [
    {
      address: '0x60e69B73db38D52C70690a8EfCeE30383190CDFA',
      topics: [Array],
      data: '0x0000000000000000000000000000000000000000000000000000000000000bb8',
      blockNumber: 3,
      transactionHash: '0xa7aa82999d4b8da857fadb8f3f18a3e1b4de0e0cbac2071bbb86993c71df1235',
      transactionIndex: 1,
      blockHash: '0x755b635be66b356cfd8a94fe71fcfc71889dc28e590d24066e5bafc2314ad806',
      logIndex: 1,
      removed: false,
      id: 'log_85172b05'
    }
  ],
  logsBloom: '0x00000000004000000000000000008000000000000000000000000000000000000000000000000000000000000000000000000000000000000000000000000000000000000000000000000008000000000000000000000000000000000000000000010004000000000100040000000000000000000000000000000010000000000000000000000000000800000000000000000000000000000000000000000000000000000000000000000000000000000000000000000000000000000000000000000002400000000000000000000000000000000000000000000000000000000000000000000000000000000000000004000000000000000000000000000000',
  status: true,
  to: '0x60e69b73db38d52c70690a8efcee30383190cdfa',
  transactionHash: '0xa7aa82999d4b8da857fadb8f3f18a3e1b4de0e0cbac2071bbb86993c71df1235',
  transactionIndex: 1,
  type: '0x2'
}
topics
[
  '0xddf252ad1be2c89b69c2b068fc378daa952ba7f163c4a11628f55a4df523b3ef',
  '0x000000000000000000000000942f397b7f4391b43115395f469c63072aed6e41',
  '0x00000000000000000000000006b90a7d72e2988ba2711d22e91eb324686104a1'
]

//==== geth

> eth.getTransaction('0xa7aa82999d4b8da857fadb8f3f18a3e1b4de0e0cbac2071bbb86993c71df1235')
{
  accessList: [],
  blockHash: "0x755b635be66b356cfd8a94fe71fcfc71889dc28e590d24066e5bafc2314ad806",
  blockNumber: 3,
  chainId: "0x1255",
  from: "0x942f397b7f4391b43115395f469c63072aed6e41",
  gas: 1000000,
  gasPrice: 3173020903,
  hash: "0xa7aa82999d4b8da857fadb8f3f18a3e1b4de0e0cbac2071bbb86993c71df1235",
  input: "0xa9059cbb00000000000000000000000006b90a7d72e2988ba2711d22e91eb324686104a10000000000000000000000000000000000000000000000000000000000000bb8",
  maxFeePerGas: 30000000000,
  maxPriorityFeePerGas: 2500000000,
  nonce: 3,
  r: "0xa3f8c9bcb37fde6aec7bd8bc35f59e619f722f4bb1e323c3ff6c3820b502ba23",
  s: "0x36e2458f7b52df560d437ff07e75d05e42136086a909ea2075562c1a77007a59",
  to: "0x60e69b73db38d52c70690a8efcee30383190cdfa",
  transactionIndex: 1,
  type: "0x2",
  v: "0x1",
  value: 0
}
> eth.getTransactionReceipt('0xa7aa82999d4b8da857fadb8f3f18a3e1b4de0e0cbac2071bbb86993c71df1235')
{
  blockHash: "0x755b635be66b356cfd8a94fe71fcfc71889dc28e590d24066e5bafc2314ad806",
  blockNumber: 3,
  contractAddress: null,
  cumulativeGasUsed: 104480,
  effectiveGasPrice: 3173020903,
  from: "0x942f397b7f4391b43115395f469c63072aed6e41",
  gasUsed: 52246,
  logs: [{
      address: "0x60e69b73db38d52c70690a8efcee30383190cdfa",
      blockHash: "0x755b635be66b356cfd8a94fe71fcfc71889dc28e590d24066e5bafc2314ad806",
      blockNumber: 3,
      data: "0x0000000000000000000000000000000000000000000000000000000000000bb8",
      logIndex: 1,
      removed: false,
      topics: ["0xddf252ad1be2c89b69c2b068fc378daa952ba7f163c4a11628f55a4df523b3ef", "0x000000000000000000000000942f397b7f4391b43115395f469c63072aed6e41", "0x00000000000000000000000006b90a7d72e2988ba2711d22e91eb324686104a1"],
      transactionHash: "0xa7aa82999d4b8da857fadb8f3f18a3e1b4de0e0cbac2071bbb86993c71df1235",
      transactionIndex: 1
  }],
  logsBloom: "0x00000000004000000000000000008000000000000000000000000000000000000000000000000000000000000000000000000000000000000000000000000000000000000000000000000008000000000000000000000000000000000000000000010004000000000100040000000000000000000000000000000010000000000000000000000000000800000000000000000000000000000000000000000000000000000000000000000000000000000000000000000000000000000000000000000002400000000000000000000000000000000000000000000000000000000000000000000000000000000000000004000000000000000000000000000000",
  status: "0x1",
  to: "0x60e69b73db38d52c70690a8efcee30383190cdfa",
  transactionHash: "0xa7aa82999d4b8da857fadb8f3f18a3e1b4de0e0cbac2071bbb86993c71df1235",
  transactionIndex: 1,
  type: "0x2"
}